{
  "_format": "hh3-artifact-1",
  "contractName": "GovToken",
  "sourceName": "contracts/GovToken.sol",
  "abi": [
    {
      "inputs": [],
      "stateMutability": "nonpayable",
      "type": "constructor"
    },
    {
      "inputs": [],
      "name": "CheckpointUnorderedInsertion",
      "type": "error"
    },
    {
      "inputs": [],
      "name": "ECDSAInvalidSignature",
      "type": "error"
    },
    {
      "inputs": [
        {
          "internalType": "uint256",
          "name": "length",
          "type": "uint256"
        }
      ],
      "name": "ECDSAInvalidSignatureLength",
      "type": "error"
    },
    {
      "inputs": [
        {
          "internalType": "bytes32",
          "name": "s",
          "type": "bytes32"
        }
      ],
      "name": "ECDSAInvalidSignatureS",
      "type": "error"
    },
    {
      "inputs": [
        {
          "internalType": "uint256",
          "name": "increasedSupply",
          "type": "uint256"
        },
        {
          "internalType": "uint256",
          "name": "cap",
          "type": "uint256"
        }
      ],
      "name": "ERC20ExceededSafeSupply",
      "type": "error"
    },
    {
      "inputs": [
        {
          "internalType": "address",
          "name": "spender",
          "type": "address"
        },
        {
          "internalType": "uint256",
          "name": "allowance",
          "type": "uint256"
        },
        {
          "internalType": "uint256",
          "name": "needed",
          "type": "uint256"
        }
      ],
      "name": "ERC20InsufficientAllowance",
      "type": "error"
    },
    {
      "inputs": [
        {
          "internalType": "address",
          "name": "sender",
          "type": "address"
        },
        {
          "internalType": "uint256",
          "name": "balance",
          "type": "uint256"
        },
        {
          "internalType": "uint256",
          "name": "needed",
          "type": "uint256"
        }
      ],
      "name": "ERC20InsufficientBalance",
      "type": "error"
    },
    {
      "inputs": [
        {
          "internalType": "address",
          "name": "approver",
          "type": "address"
        }
      ],
      "name": "ERC20InvalidApprover",
      "type": "error"
    },
    {
      "inputs": [
        {
          "internalType": "address",
          "name": "receiver",
          "type": "address"
        }
      ],
      "name": "ERC20InvalidReceiver",
      "type": "error"
    },
    {
      "inputs": [
        {
          "internalType": "address",
          "name": "sender",
          "type": "address"
        }
      ],
      "name": "ERC20InvalidSender",
      "type": "error"
    },
    {
      "inputs": [
        {
          "internalType": "address",
          "name": "spender",
          "type": "address"
        }
      ],
      "name": "ERC20InvalidSpender",
      "type": "error"
    },
    {
      "inputs": [
        {
          "internalType": "uint256",
          "name": "deadline",
          "type": "uint256"
        }
      ],
      "name": "ERC2612ExpiredSignature",
      "type": "error"
    },
    {
      "inputs": [
        {
          "internalType": "address",
          "name": "signer",
          "type": "address"
        },
        {
          "internalType": "address",
          "name": "owner",
          "type": "address"
        }
      ],
      "name": "ERC2612InvalidSigner",
      "type": "error"
    },
    {
      "inputs": [
        {
          "internalType": "uint256",
          "name": "timepoint",
          "type": "uint256"
        },
        {
          "internalType": "uint48",
          "name": "clock",
          "type": "uint48"
        }
      ],
      "name": "ERC5805FutureLookup",
      "type": "error"
    },
    {
      "inputs": [],
      "name": "ERC6372InconsistentClock",
      "type": "error"
    },
    {
      "inputs": [
        {
          "internalType": "address",
          "name": "account",
          "type": "address"
        },
        {
          "internalType": "uint256",
          "name": "currentNonce",
          "type": "uint256"
        }
      ],
      "name": "InvalidAccountNonce",
      "type": "error"
    },
    {
      "inputs": [],
      "name": "InvalidShortString",
      "type": "error"
    },
    {
      "inputs": [
        {
          "internalType": "address",
          "name": "owner",
          "type": "address"
        }
      ],
      "name": "OwnableInvalidOwner",
      "type": "error"
    },
    {
      "inputs": [
        {
          "internalType": "address",
          "name": "account",
          "type": "address"
        }
      ],
      "name": "OwnableUnauthorizedAccount",
      "type": "error"
    },
    {
      "inputs": [
        {
          "internalType": "uint8",
          "name": "bits",
          "type": "uint8"
        },
        {
          "internalType": "uint256",
          "name": "value",
          "type": "uint256"
        }
      ],
      "name": "SafeCastOverflowedUintDowncast",
      "type": "error"
    },
    {
      "inputs": [
        {
          "internalType": "string",
          "name": "str",
          "type": "string"
        }
      ],
      "name": "StringTooLong",
      "type": "error"
    },
    {
      "inputs": [
        {
          "internalType": "uint256",
          "name": "expiry",
          "type": "uint256"
        }
      ],
      "name": "VotesExpiredSignature",
      "type": "error"
    },
    {
      "anonymous": false,
      "inputs": [
        {
          "indexed": true,
          "internalType": "address",
          "name": "owner",
          "type": "address"
        },
        {
          "indexed": true,
          "internalType": "address",
          "name": "spender",
          "type": "address"
        },
        {
          "indexed": false,
          "internalType": "uint256",
          "name": "value",
          "type": "uint256"
        }
      ],
      "name": "Approval",
      "type": "event"
    },
    {
      "anonymous": false,
      "inputs": [
        {
          "indexed": true,
          "internalType": "address",
          "name": "delegator",
          "type": "address"
        },
        {
          "indexed": true,
          "internalType": "address",
          "name": "fromDelegate",
          "type": "address"
        },
        {
          "indexed": true,
          "internalType": "address",
          "name": "toDelegate",
          "type": "address"
        }
      ],
      "name": "DelegateChanged",
      "type": "event"
    },
    {
      "anonymous": false,
      "inputs": [
        {
          "indexed": true,
          "internalType": "address",
          "name": "delegate",
          "type": "address"
        },
        {
          "indexed": false,
          "internalType": "uint256",
          "name": "previousVotes",
          "type": "uint256"
        },
        {
          "indexed": false,
          "internalType": "uint256",
          "name": "newVotes",
          "type": "uint256"
        }
      ],
      "name": "DelegateVotesChanged",
      "type": "event"
    },
    {
      "anonymous": false,
      "inputs": [],
      "name": "EIP712DomainChanged",
      "type": "event"
    },
    {
      "anonymous": false,
      "inputs": [
        {
          "indexed": true,
          "internalType": "address",
          "name": "previousOwner",
          "type": "address"
        },
        {
          "indexed": true,
          "internalType": "address",
          "name": "newOwner",
          "type": "address"
        }
      ],
      "name": "OwnershipTransferred",
      "type": "event"
    },
    {
      "anonymous": false,
      "inputs": [
        {
          "indexed": true,
          "internalType": "address",
          "name": "from",
          "type": "address"
        },
        {
          "indexed": true,
          "internalType": "address",
          "name": "to",
          "type": "address"
        },
        {
          "indexed": false,
          "internalType": "uint256",
          "name": "value",
          "type": "uint256"
        }
      ],
      "name": "Transfer",
      "type": "event"
    },
    {
      "inputs": [],
      "name": "CLOCK_MODE",
      "outputs": [
        {
          "internalType": "string",
          "name": "",
          "type": "string"
        }
      ],
      "stateMutability": "view",
      "type": "function"
    },
    {
      "inputs": [],
      "name": "DOMAIN_SEPARATOR",
      "outputs": [
        {
          "internalType": "bytes32",
          "name": "",
          "type": "bytes32"
        }
      ],
      "stateMutability": "view",
      "type": "function"
    },
    {
      "inputs": [
        {
          "internalType": "address",
          "name": "owner",
          "type": "address"
        },
        {
          "internalType": "address",
          "name": "spender",
          "type": "address"
        }
      ],
      "name": "allowance",
      "outputs": [
        {
          "internalType": "uint256",
          "name": "",
          "type": "uint256"
        }
      ],
      "stateMutability": "view",
      "type": "function"
    },
    {
      "inputs": [
        {
          "internalType": "address",
          "name": "spender",
          "type": "address"
        },
        {
          "internalType": "uint256",
          "name": "value",
          "type": "uint256"
        }
      ],
      "name": "approve",
      "outputs": [
        {
          "internalType": "bool",
          "name": "",
          "type": "bool"
        }
      ],
      "stateMutability": "nonpayable",
      "type": "function"
    },
    {
      "inputs": [
        {
          "internalType": "address",
          "name": "account",
          "type": "address"
        }
      ],
      "name": "balanceOf",
      "outputs": [
        {
          "internalType": "uint256",
          "name": "",
          "type": "uint256"
        }
      ],
      "stateMutability": "view",
      "type": "function"
    },
    {
      "inputs": [
        {
          "internalType": "address",
          "name": "account",
          "type": "address"
        },
        {
          "internalType": "uint32",
          "name": "pos",
          "type": "uint32"
        }
      ],
      "name": "checkpoints",
      "outputs": [
        {
          "components": [
            {
              "internalType": "uint48",
              "name": "_key",
              "type": "uint48"
            },
            {
              "internalType": "uint208",
              "name": "_value",
              "type": "uint208"
            }
          ],
          "internalType": "struct Checkpoints.Checkpoint208",
          "name": "",
          "type": "tuple"
        }
      ],
      "stateMutability": "view",
      "type": "function"
    },
    {
      "inputs": [],
      "name": "clock",
      "outputs": [
        {
          "internalType": "uint48",
          "name": "",
          "type": "uint48"
        }
      ],
      "stateMutability": "view",
      "type": "function"
    },
    {
      "inputs": [],
      "name": "decimals",
      "outputs": [
        {
          "internalType": "uint8",
          "name": "",
          "type": "uint8"
        }
      ],
      "stateMutability": "view",
      "type": "function"
    },
    {
      "inputs": [
        {
          "internalType": "address",
          "name": "delegatee",
          "type": "address"
        }
      ],
      "name": "delegate",
      "outputs": [],
      "stateMutability": "nonpayable",
      "type": "function"
    },
    {
      "inputs": [
        {
          "internalType": "address",
          "name": "delegatee",
          "type": "address"
        },
        {
          "internalType": "uint256",
          "name": "nonce",
          "type": "uint256"
        },
        {
          "internalType": "uint256",
          "name": "expiry",
          "type": "uint256"
        },
        {
          "internalType": "uint8",
          "name": "v",
          "type": "uint8"
        },
        {
          "internalType": "bytes32",
          "name": "r",
          "type": "bytes32"
        },
        {
          "internalType": "bytes32",
          "name": "s",
          "type": "bytes32"
        }
      ],
      "name": "delegateBySig",
      "outputs": [],
      "stateMutability": "nonpayable",
      "type": "function"
    },
    {
      "inputs": [
        {
          "internalType": "address",
          "name": "account",
          "type": "address"
        }
      ],
      "name": "delegates",
      "outputs": [
        {
          "internalType": "address",
          "name": "",
          "type": "address"
        }
      ],
      "stateMutability": "view",
      "type": "function"
    },
    {
      "inputs": [],
      "name": "eip712Domain",
      "outputs": [
        {
          "internalType": "bytes1",
          "name": "fields",
          "type": "bytes1"
        },
        {
          "internalType": "string",
          "name": "name",
          "type": "string"
        },
        {
          "internalType": "string",
          "name": "version",
          "type": "string"
        },
        {
          "internalType": "uint256",
          "name": "chainId",
          "type": "uint256"
        },
        {
          "internalType": "address",
          "name": "verifyingContract",
          "type": "address"
        },
        {
          "internalType": "bytes32",
          "name": "salt",
          "type": "bytes32"
        },
        {
          "internalType": "uint256[]",
          "name": "extensions",
          "type": "uint256[]"
        }
      ],
      "stateMutability": "view",
      "type": "function"
    },
    {
      "inputs": [
        {
          "internalType": "uint256",
          "name": "timepoint",
          "type": "uint256"
        }
      ],
      "name": "getPastTotalSupply",
      "outputs": [
        {
          "internalType": "uint256",
          "name": "",
          "type": "uint256"
        }
      ],
      "stateMutability": "view",
      "type": "function"
    },
    {
      "inputs": [
        {
          "internalType": "address",
          "name": "account",
          "type": "address"
        },
        {
          "internalType": "uint256",
          "name": "timepoint",
          "type": "uint256"
        }
      ],
      "name": "getPastVotes",
      "outputs": [
        {
          "internalType": "uint256",
          "name": "",
          "type": "uint256"
        }
      ],
      "stateMutability": "view",
      "type": "function"
    },
    {
      "inputs": [
        {
          "internalType": "address",
          "name": "account",
          "type": "address"
        }
      ],
      "name": "getVotes",
      "outputs": [
        {
          "internalType": "uint256",
          "name": "",
          "type": "uint256"
        }
      ],
      "stateMutability": "view",
      "type": "function"
    },
    {
      "inputs": [
        {
          "internalType": "address",
          "name": "to",
          "type": "address"
        },
        {
          "internalType": "uint256",
          "name": "amount",
          "type": "uint256"
        }
      ],
      "name": "mint",
      "outputs": [],
      "stateMutability": "nonpayable",
      "type": "function"
    },
    {
      "inputs": [],
      "name": "name",
      "outputs": [
        {
          "internalType": "string",
          "name": "",
          "type": "string"
        }
      ],
      "stateMutability": "view",
      "type": "function"
    },
    {
      "inputs": [
        {
          "internalType": "address",
          "name": "owner",
          "type": "address"
        }
      ],
      "name": "nonces",
      "outputs": [
        {
          "internalType": "uint256",
          "name": "",
          "type": "uint256"
        }
      ],
      "stateMutability": "view",
      "type": "function"
    },
    {
      "inputs": [
        {
          "internalType": "address",
          "name": "account",
          "type": "address"
        }
      ],
      "name": "numCheckpoints",
      "outputs": [
        {
          "internalType": "uint32",
          "name": "",
          "type": "uint32"
        }
      ],
      "stateMutability": "view",
      "type": "function"
    },
    {
      "inputs": [],
      "name": "owner",
      "outputs": [
        {
          "internalType": "address",
          "name": "",
          "type": "address"
        }
      ],
      "stateMutability": "view",
      "type": "function"
    },
    {
      "inputs": [
        {
          "internalType": "address",
          "name": "owner",
          "type": "address"
        },
        {
          "internalType": "address",
          "name": "spender",
          "type": "address"
        },
        {
          "internalType": "uint256",
          "name": "value",
          "type": "uint256"
        },
        {
          "internalType": "uint256",
          "name": "deadline",
          "type": "uint256"
        },
        {
          "internalType": "uint8",
          "name": "v",
          "type": "uint8"
        },
        {
          "internalType": "bytes32",
          "name": "r",
          "type": "bytes32"
        },
        {
          "internalType": "bytes32",
          "name": "s",
          "type": "bytes32"
        }
      ],
      "name": "permit",
      "outputs": [],
      "stateMutability": "nonpayable",
      "type": "function"
    },
    {
      "inputs": [],
      "name": "renounceOwnership",
      "outputs": [],
      "stateMutability": "nonpayable",
      "type": "function"
    },
    {
      "inputs": [],
      "name": "symbol",
      "outputs": [
        {
          "internalType": "string",
          "name": "",
          "type": "string"
        }
      ],
      "stateMutability": "view",
      "type": "function"
    },
    {
      "inputs": [],
      "name": "totalSupply",
      "outputs": [
        {
          "internalType": "uint256",
          "name": "",
          "type": "uint256"
        }
      ],
      "stateMutability": "view",
      "type": "function"
    },
    {
      "inputs": [
        {
          "internalType": "address",
          "name": "to",
          "type": "address"
        },
        {
          "internalType": "uint256",
          "name": "value",
          "type": "uint256"
        }
      ],
      "name": "transfer",
      "outputs": [
        {
          "internalType": "bool",
          "name": "",
          "type": "bool"
        }
      ],
      "stateMutability": "nonpayable",
      "type": "function"
    },
    {
      "inputs": [
        {
          "internalType": "address",
          "name": "from",
          "type": "address"
        },
        {
          "internalType": "address",
          "name": "to",
          "type": "address"
        },
        {
          "internalType": "uint256",
          "name": "value",
          "type": "uint256"
        }
      ],
      "name": "transferFrom",
      "outputs": [
        {
          "internalType": "bool",
          "name": "",
          "type": "bool"
        }
      ],
      "stateMutability": "nonpayable",
      "type": "function"
    },
    {
      "inputs": [
        {
          "internalType": "address",
          "name": "newOwner",
          "type": "address"
        }
      ],
      "name": "transferOwnership",
      "outputs": [],
      "stateMutability": "nonpayable",
      "type": "function"
    }
  ],
  "bytecode": "0x610160604052348015610010575f5ffd5b50336040518060400160405280600f81526020016e43727970746f496e7665737444414f60881b81525080604051806040016040528060018152602001603160f81b8152506040518060400160405280600f81526020016e43727970746f496e7665737444414f60881b8152506040518060400160405280600381526020016210d25160ea1b81525081600390816100a891906102ff565b5060046100b582826102ff565b506100c5915083905060056101a7565b610120526100d48160066101a7565b61014052815160208084019190912060e052815190820120610100524660a05261016060e05161010051604080517f8b73c3c69bb8fe3d512ecc4cf759cc79239f7b179b0ffacaa9a75d522b39400f60208201529081019290925260608201524660808201523060a08201525f9060c00160405160208183030381529060405280519060200120905090565b60805250503060c052506001600160a01b03811661019857604051631e4fbdf760e01b81525f60048201526024015b60405180910390fd5b6101a1816101d9565b50610411565b5f6020835110156101c2576101bb8361022a565b90506101d3565b816101cd84826102ff565b5060ff90505b92915050565b600b80546001600160a01b038381166001600160a01b0319831681179093556040519116919082907f8be0079c531659141344cd1fd0a4f28419497f9722a3daafe3b4186f6b6457e0905f90a35050565b5f5f829050601f81511115610254578260405163305a27a960e01b815260040161018f91906103b9565b805161025f826103ee565b179392505050565b634e487b7160e01b5f52604160045260245ffd5b600181811c9082168061028f57607f821691505b6020821081036102ad57634e487b7160e01b5f52602260045260245ffd5b50919050565b601f8211156102fa57805f5260205f20601f840160051c810160208510156102d85750805b601f840160051c820191505b818110156102f7575f81556001016102e4565b50505b505050565b81516001600160401b0381111561031857610318610267565b61032c81610326845461027b565b846102b3565b6020601f82116001811461035e575f83156103475750848201515b5f19600385901b1c1916600184901b1784556102f7565b5f84815260208120601f198516915b8281101561038d578785015182556020948501946001909201910161036d565b50848210156103aa57868401515f19600387901b60f8161c191681555b50505050600190811b01905550565b602081525f82518060208401528060208501604085015e5f604082850101526040601f19601f83011684010191505092915050565b805160208083015191908110156102ad575f1960209190910360031b1b16919050565b60805160a05160c05160e051610100516101205161014051611e816104625f395f610dd701525f610daa01525f610aea01525f610ac201525f610a1d01525f610a4701525f610a710152611e815ff3fe608060405234801561000f575f5ffd5b50600436106101a1575f3560e01c8063715018a6116100f35780639ab24eb011610093578063d505accf1161006e578063d505accf146103b2578063dd62ed3e146103c5578063f1127ed8146103fd578063f2fde38b1461043c575f5ffd5b80639ab24eb014610379578063a9059cbb1461038c578063c3cda5201461039f575f5ffd5b80638da5cb5b116100ce5780638da5cb5b1461032e5780638e539e8c1461033f57806391ddadf41461035257806395d89b4114610371575f5ffd5b8063715018a6146102f85780637ecebe001461030057806384b0196e14610313575f5ffd5b80633a46b1a81161015e578063587cde1e11610139578063587cde1e146102525780635c19a95c146102955780636fcfff45146102a857806370a08231146102d0575f5ffd5b80633a46b1a81461022257806340c10f19146102355780634bf5d7e91461024a575f5ffd5b806306fdde03146101a5578063095ea7b3146101c357806318160ddd146101e657806323b872dd146101f8578063313ce5671461020b5780633644e5151461021a575b5f5ffd5b6101ad61044f565b6040516101ba9190611ab3565b60405180910390f35b6101d66101d1366004611ae0565b6104df565b60405190151581526020016101ba565b6002545b6040519081526020016101ba565b6101d6610206366004611b08565b6104f8565b604051601281526020016101ba565b6101ea61051b565b6101ea610230366004611ae0565b610529565b610248610243366004611ae0565b610563565b005b6101ad610579565b61027d610260366004611b42565b6001600160a01b039081165f908152600860205260409020541690565b6040516001600160a01b0390911681526020016101ba565b6102486102a3366004611b42565b6105f1565b6102bb6102b6366004611b42565b6105fc565b60405163ffffffff90911681526020016101ba565b6101ea6102de366004611b42565b6001600160a01b03165f9081526020819052604090205490565b610248610606565b6101ea61030e366004611b42565b610619565b61031b610623565b6040516101ba9796959493929190611b5b565b600b546001600160a01b031661027d565b6101ea61034d366004611bf1565b610665565b61035a610689565b60405165ffffffffffff90911681526020016101ba565b6101ad610692565b6101ea610387366004611b42565b6106a1565b6101d661039a366004611ae0565b6106c1565b6102486103ad366004611c18565b6106ce565b6102486103c0366004611c6c565b61078f565b6101ea6103d3366004611cd2565b6001600160a01b039182165f90815260016020908152604080832093909416825291909152205490565b61041061040b366004611d03565b6108c5565b60408051825165ffffffffffff1681526020928301516001600160d01b031692810192909252016101ba565b61024861044a366004611b42565b6108e9565b60606003805461045e90611d40565b80601f016020809104026020016040519081016040528092919081815260200182805461048a90611d40565b80156104d55780601f106104ac576101008083540402835291602001916104d5565b820191905f5260205f20905b8154815290600101906020018083116104b857829003601f168201915b5050505050905090565b5f336104ec818585610926565b60019150505b92915050565b5f33610505858285610938565b6105108585856109b4565b506001949350505050565b5f610524610a11565b905090565b5f61055361053683610b3a565b6001600160a01b0385165f90815260096020526040902090610b88565b6001600160d01b03169392505050565b61056b610c38565b6105758282610c65565b5050565b6060610583610c99565b65ffffffffffff16610593610689565b65ffffffffffff16146105b9576040516301bfc1c560e61b815260040160405180910390fd5b5060408051808201909152601d81527f6d6f64653d626c6f636b6e756d6265722666726f6d3d64656661756c74000000602082015290565b336105758183610ca3565b5f6104f282610d14565b61060e610c38565b6106175f610d35565b565b5f6104f282610d86565b5f6060805f5f5f6060610634610da3565b61063c610dd0565b604080515f80825260208201909252600f60f81b9b939a50919850469750309650945092509050565b5f61067a61067283610b3a565b600a90610b88565b6001600160d01b031692915050565b5f610524610c99565b60606004805461045e90611d40565b6001600160a01b0381165f90815260096020526040812061067a90610dfd565b5f336104ec8185856109b4565b834211156106f757604051632341d78760e11b8152600481018590526024015b60405180910390fd5b604080517fe48329057bfd03d55e49b547132e39cffd9c1820ad7b9d4c5307691425d15adf60208201526001600160a01b0388169181019190915260608101869052608081018590525f90610770906107689060a00160405160208183030381529060405280519060200120610e34565b858585610e60565b905061077c8187610e8c565b6107868188610ca3565b50505050505050565b834211156107b35760405163313c898160e11b8152600481018590526024016106ee565b5f7f6e71edae12b1b97f4d1f60370fef10105fa2faae0126114a169c64845d6126c98888886107fe8c6001600160a01b03165f90815260076020526040902080546001810190915590565b6040805160208101969096526001600160a01b0394851690860152929091166060840152608083015260a082015260c0810186905260e0016040516020818303038152906040528051906020012090505f61085882610e34565b90505f61086782878787610e60565b9050896001600160a01b0316816001600160a01b0316146108ae576040516325c0072360e11b81526001600160a01b0380831660048301528b1660248201526044016106ee565b6108b98a8a8a610926565b50505050505050505050565b604080518082019091525f80825260208201526108e28383610ede565b9392505050565b6108f1610c38565b6001600160a01b03811661091a57604051631e4fbdf760e01b81525f60048201526024016106ee565b61092381610d35565b50565b6109338383836001610f12565b505050565b6001600160a01b038381165f908152600160209081526040808320938616835292905220545f198110156109ae57818110156109a057604051637dc7a0d960e11b81526001600160a01b038416600482015260248101829052604481018390526064016106ee565b6109ae84848484035f610f12565b50505050565b6001600160a01b0383166109dd57604051634b637e8f60e11b81525f60048201526024016106ee565b6001600160a01b038216610a065760405163ec442f0560e01b81525f60048201526024016106ee565b610933838383610fe4565b5f306001600160a01b037f000000000000000000000000000000000000000000000000000000000000000016148015610a6957507f000000000000000000000000000000000000000000000000000000000000000046145b15610a9357507f000000000000000000000000000000000000000000000000000000000000000090565b610524604080517f8b73c3c69bb8fe3d512ecc4cf759cc79239f7b179b0ffacaa9a75d522b39400f60208201527f0000000000000000000000000000000000000000000000000000000000000000918101919091527f000000000000000000000000000000000000000000000000000000000000000060608201524660808201523060a08201525f9060c00160405160208183030381529060405280519060200120905090565b5f5f610b44610689565b90508065ffffffffffff168310610b7f57604051637669fc0f60e11b81526004810184905265ffffffffffff821660248201526044016106ee565b6108e283610fef565b81545f9081816005811115610be4575f610ba184611025565b610bab9085611d8c565b5f8881526020902090915081015465ffffffffffff9081169087161015610bd457809150610be2565b610bdf816001611d9f565b92505b505b5f610bf18787858561117d565b90508015610c2b57610c1587610c08600184611d8c565b5f91825260209091200190565b54600160301b90046001600160d01b0316610c2d565b5f5b979650505050505050565b600b546001600160a01b031633146106175760405163118cdaa760e01b81523360048201526024016106ee565b6001600160a01b038216610c8e5760405163ec442f0560e01b81525f60048201526024016106ee565b6105755f8383610fe4565b5f61052443610fef565b6001600160a01b038281165f8181526008602052604080822080548686166001600160a01b0319821681179092559151919094169392849290917f3134e8a2e6d97e929a7e54011ea5485d7d196dd5f0ba4d4ef95803e8e3fc257f9190a46109338183610d0f866111dc565b6111f9565b6001600160a01b0381165f908152600960205260408120546104f290611362565b600b80546001600160a01b038381166001600160a01b0319831681179093556040519116919082907f8be0079c531659141344cd1fd0a4f28419497f9722a3daafe3b4186f6b6457e0905f90a35050565b6001600160a01b0381165f908152600760205260408120546104f2565b60606105247f00000000000000000000000000000000000000000000000000000000000000006005611392565b60606105247f00000000000000000000000000000000000000000000000000000000000000006006611392565b80545f908015610e2c57610e1683610c08600184611d8c565b54600160301b90046001600160d01b03166108e2565b5f9392505050565b5f6104f2610e40610a11565b8360405161190160f01b8152600281019290925260228201526042902090565b5f5f5f5f610e708888888861143b565b925092509250610e808282611503565b50909695505050505050565b6001600160a01b0382165f908152600760205260409020805460018101909155818114610933576040516301d4b62360e61b81526001600160a01b0384166004820152602481018290526044016106ee565b604080518082019091525f80825260208201526001600160a01b0383165f9081526009602052604090206108e290836115bb565b6001600160a01b038416610f3b5760405163e602df0560e01b81525f60048201526024016106ee565b6001600160a01b038316610f6457604051634a1406b160e11b81525f60048201526024016106ee565b6001600160a01b038085165f90815260016020908152604080832093871683529290522082905580156109ae57826001600160a01b0316846001600160a01b03167f8c5be1e5ebec7d5bd14f71427d1e84f3dd0314c0f7b2291e5b200ac8c7c3b92584604051610fd691815260200190565b60405180910390a350505050565b610933838383611628565b5f65ffffffffffff821115611021576040516306dfcc6560e41b815260306004820152602481018390526044016106ee565b5090565b5f60018211611032575090565b816001600160801b821061104b5760809190911c9060401b5b6801000000000000000082106110665760409190911c9060201b5b640100000000821061107d5760209190911c9060101b5b6201000082106110925760109190911c9060081b5b61010082106110a65760089190911c9060041b5b601082106110b95760049190911c9060021b5b600482106110c55760011b5b600302600190811c908185816110dd576110dd611db2565b048201901c905060018185816110f5576110f5611db2565b048201901c9050600181858161110d5761110d611db2565b048201901c9050600181858161112557611125611db2565b048201901c9050600181858161113d5761113d611db2565b048201901c9050600181858161115557611155611db2565b048201901c905061117481858161116e5761116e611db2565b04821190565b90039392505050565b5f5b818310156111d4575f611192848461168e565b5f8781526020902090915065ffffffffffff86169082015465ffffffffffff1611156111c0578092506111ce565b6111cb816001611d9f565b93505b5061117f565b509392505050565b6001600160a01b0381165f908152602081905260408120546104f2565b816001600160a01b0316836001600160a01b03161415801561121a57505f81115b15610933576001600160a01b038316156112c1576001600160a01b0383165f908152600960205260408120819061125c906116a8611257866116b3565b6116e6565b6001600160d01b031691506001600160d01b03169150846001600160a01b03167fdec2bacdd2f05b59de34da9b523dff8be42e5e38e818c82fdb0bae774387a72483836040516112b6929190918252602082015260400190565b60405180910390a250505b6001600160a01b03821615610933576001600160a01b0382165f90815260096020526040812081906112f99061171e611257866116b3565b6001600160d01b031691506001600160d01b03169150836001600160a01b03167fdec2bacdd2f05b59de34da9b523dff8be42e5e38e818c82fdb0bae774387a7248383604051611353929190918252602082015260400190565b60405180910390a25050505050565b5f63ffffffff821115611021576040516306dfcc6560e41b815260206004820152602481018390526044016106ee565b606060ff83146113ac576113a583611729565b90506104f2565b8180546113b890611d40565b80601f01602080910402602001604051908101604052809291908181526020018280546113e490611d40565b801561142f5780601f106114065761010080835404028352916020019161142f565b820191905f5260205f20905b81548152906001019060200180831161141257829003601f168201915b505050505090506104f2565b5f80807f7fffffffffffffffffffffffffffffff5d576e7357a4501ddfe92f46681b20a084111561147457505f915060039050826114f9565b604080515f808252602082018084528a905260ff891692820192909252606081018790526080810186905260019060a0016020604051602081039080840390855afa1580156114c5573d5f5f3e3d5ffd5b5050604051601f1901519150506001600160a01b0381166114f057505f9250600191508290506114f9565b92505f91508190505b9450945094915050565b5f82600381111561151657611516611dc6565b0361151f575050565b600182600381111561153357611533611dc6565b036115515760405163f645eedf60e01b815260040160405180910390fd5b600282600381111561156557611565611dc6565b036115865760405163fce698f760e01b8152600481018290526024016106ee565b600382600381111561159a5761159a611dc6565b03610575576040516335e2f38360e21b8152600481018290526024016106ee565b604080518082019091525f8082526020820152825f018263ffffffff16815481106115e8576115e8611dda565b5f9182526020918290206040805180820190915291015465ffffffffffff81168252600160301b90046001600160d01b0316918101919091529392505050565b611633838383611766565b6001600160a01b038316611683575f61164b60025490565b90506001600160d01b038082111561168057604051630e58ae9360e11b815260048101839052602481018290526044016106ee565b50505b61093383838361188c565b5f61169c6002848418611dee565b6108e290848416611d9f565b5f6108e28284611e0d565b5f6001600160d01b03821115611021576040516306dfcc6560e41b815260d06004820152602481018390526044016106ee565b5f5f6117116116f3610689565b6117096116ff88610dfd565b868863ffffffff16565b879190611901565b915091505b935093915050565b5f6108e28284611e2c565b60605f6117358361190e565b6040805160208082528183019092529192505f91906020820181803683375050509182525060208101929092525090565b6001600160a01b038316611790578060025f8282546117859190611d9f565b909155506118009050565b6001600160a01b0383165f90815260208190526040902054818110156117e25760405163391434e360e21b81526001600160a01b038516600482015260248101829052604481018390526064016106ee565b6001600160a01b0384165f9081526020819052604090209082900390555b6001600160a01b03821661181c5760028054829003905561183a565b6001600160a01b0382165f9081526020819052604090208054820190555b816001600160a01b0316836001600160a01b03167fddf252ad1be2c89b69c2b068fc378daa952ba7f163c4a11628f55a4df523b3ef8360405161187f91815260200190565b60405180910390a3505050565b6001600160a01b0383166118ae576118ab600a61171e611257846116b3565b50505b6001600160a01b0382166118d0576118cd600a6116a8611257846116b3565b50505b6001600160a01b038381165f90815260086020526040808220548584168352912054610933929182169116836111f9565b5f80611711858585611935565b5f60ff8216601f8111156104f257604051632cd44ac360e21b815260040160405180910390fd5b82545f9081908015611a2b575f61195187610c08600185611d8c565b805490915065ffffffffffff80821691600160301b90046001600160d01b031690881682111561199457604051632520601d60e01b815260040160405180910390fd5b8765ffffffffffff168265ffffffffffff16036119cd57825465ffffffffffff16600160301b6001600160d01b03891602178355611a1d565b6040805180820190915265ffffffffffff808a1682526001600160d01b03808a1660208085019182528d54600181018f555f8f81529190912094519151909216600160301b029216919091179101555b945085935061171692505050565b50506040805180820190915265ffffffffffff80851682526001600160d01b0380851660208085019182528854600181018a555f8a815291822095519251909316600160301b029190931617920191909155905081611716565b5f81518084528060208401602086015e5f602082860101526020601f19601f83011685010191505092915050565b602081525f6108e26020830184611a85565b80356001600160a01b0381168114611adb575f5ffd5b919050565b5f5f60408385031215611af1575f5ffd5b611afa83611ac5565b946020939093013593505050565b5f5f5f60608486031215611b1a575f5ffd5b611b2384611ac5565b9250611b3160208501611ac5565b929592945050506040919091013590565b5f60208284031215611b52575f5ffd5b6108e282611ac5565b60ff60f81b8816815260e060208201525f611b7960e0830189611a85565b8281036040840152611b8b8189611a85565b606084018890526001600160a01b038716608085015260a0840186905283810360c0850152845180825260208087019350909101905f5b81811015611be0578351835260209384019390920191600101611bc2565b50909b9a5050505050505050505050565b5f60208284031215611c01575f5ffd5b5035919050565b803560ff81168114611adb575f5ffd5b5f5f5f5f5f5f60c08789031215611c2d575f5ffd5b611c3687611ac5565b95506020870135945060408701359350611c5260608801611c08565b9598949750929560808101359460a0909101359350915050565b5f5f5f5f5f5f5f60e0888a031215611c82575f5ffd5b611c8b88611ac5565b9650611c9960208901611ac5565b95506040880135945060608801359350611cb560808901611c08565b9699959850939692959460a0840135945060c09093013592915050565b5f5f60408385031215611ce3575f5ffd5b611cec83611ac5565b9150611cfa60208401611ac5565b90509250929050565b5f5f60408385031215611d14575f5ffd5b611d1d83611ac5565b9150602083013563ffffffff81168114611d35575f5ffd5b809150509250929050565b600181811c90821680611d5457607f821691505b602082108103611d7257634e487b7160e01b5f52602260045260245ffd5b50919050565b634e487b7160e01b5f52601160045260245ffd5b818103818111156104f2576104f2611d78565b808201808211156104f2576104f2611d78565b634e487b7160e01b5f52601260045260245ffd5b634e487b7160e01b5f52602160045260245ffd5b634e487b7160e01b5f52603260045260245ffd5b5f82611e0857634e487b7160e01b5f52601260045260245ffd5b500490565b6001600160d01b0382811682821603908111156104f2576104f2611d78565b6001600160d01b0381811683821601908111156104f2576104f2611d7856fea26469706673582212209c11fe775e0f709ed36c20279b349c03c01fd4e3f6e173fe86805eb151a204c264736f6c634300081c0033",
  "linkReferences": {},
  "deployedLinkReferences": {},
  "immutableReferences": {
    "4164": [
      {
        "length": 32,
        "start": 2673
      }
    ],
    "4166": [
      {
        "length": 32,
        "start": 2631
      }
    ],
    "4168": [
      {
        "length": 32,
        "start": 2589
      }
    ],
    "4170": [
      {
        "length": 32,
        "start": 2754
      }
    ],
    "4172": [
      {
        "length": 32,
        "start": 2794
      }
    ],
    "4175": [
      {
        "length": 32,
        "start": 3498
      }
    ],
    "4178": [
      {
        "length": 32,
        "start": 3543
      }
    ]
  },
  "inputSourceName": "project/contracts/GovToken.sol",
  "buildInfoId": "solc-0_8_28-d5e166a4e2ee211186c2d44a3a1f580e77226edc"
}