{
  "_format": "hh3-artifact-1",
  "contractName": "InvestDAO",
  "sourceName": "contracts/InvestDAO.sol",
  "abi": [
    {
      "inputs": [
        {
          "internalType": "address",
          "name": "_govToken",
          "type": "address"
        },
        {
          "internalType": "address payable",
          "name": "_treasury",
          "type": "address"
        }
      ],
      "stateMutability": "nonpayable",
      "type": "constructor"
    },
    {
      "inputs": [
        {
          "internalType": "address",
          "name": "owner",
          "type": "address"
        }
      ],
      "name": "OwnableInvalidOwner",
      "type": "error"
    },
    {
      "inputs": [
        {
          "internalType": "address",
          "name": "account",
          "type": "address"
        }
      ],
      "name": "OwnableUnauthorizedAccount",
      "type": "error"
    },
    {
      "anonymous": false,
      "inputs": [
        {
          "indexed": true,
          "internalType": "address",
          "name": "member",
          "type": "address"
        },
        {
          "indexed": false,
          "internalType": "uint256",
          "name": "amount",
          "type": "uint256"
        },
        {
          "indexed": false,
          "internalType": "uint256",
          "name": "tokensMinted",
          "type": "uint256"
        }
      ],
      "name": "Deposited",
      "type": "event"
    },
    {
      "anonymous": false,
      "inputs": [
        {
          "indexed": true,
          "internalType": "address",
          "name": "previousOwner",
          "type": "address"
        },
        {
          "indexed": true,
          "internalType": "address",
          "name": "newOwner",
          "type": "address"
        }
      ],
      "name": "OwnershipTransferred",
      "type": "event"
    },
    {
      "inputs": [],
      "name": "deposit",
      "outputs": [],
      "stateMutability": "payable",
      "type": "function"
    },
    {
      "inputs": [],
      "name": "govToken",
      "outputs": [
        {
          "internalType": "contract GovToken",
          "name": "",
          "type": "address"
        }
      ],
      "stateMutability": "view",
      "type": "function"
    },
    {
      "inputs": [],
      "name": "owner",
      "outputs": [
        {
          "internalType": "address",
          "name": "",
          "type": "address"
        }
      ],
      "stateMutability": "view",
      "type": "function"
    },
    {
      "inputs": [],
      "name": "renounceOwnership",
      "outputs": [],
      "stateMutability": "nonpayable",
      "type": "function"
    },
    {
      "inputs": [
        {
          "internalType": "address",
          "name": "newOwner",
          "type": "address"
        }
      ],
      "name": "transferOwnership",
      "outputs": [],
      "stateMutability": "nonpayable",
      "type": "function"
    },
    {
      "inputs": [],
      "name": "treasury",
      "outputs": [
        {
          "internalType": "contract TreasuryTimelock",
          "name": "",
          "type": "address"
        }
      ],
      "stateMutability": "view",
      "type": "function"
    }
  ],
  "bytecode": "0x608060405234801561000f575f5ffd5b5060405161053238038061053283398101604081905261002e916100f4565b338061005357604051631e4fbdf760e01b81525f600482015260240160405180910390fd5b61005c8161008e565b50600180546001600160a01b039384166001600160a01b0319918216179091556002805492909316911617905561012c565b5f80546001600160a01b038381166001600160a01b0319831681178455604051919092169283917f8be0079c531659141344cd1fd0a4f28419497f9722a3daafe3b4186f6b6457e09190a35050565b6001600160a01b03811681146100f1575f5ffd5b50565b5f5f60408385031215610105575f5ffd5b8251610110816100dd565b6020840151909250610121816100dd565b809150509250929050565b6103f9806101395f395ff3fe608060405260043610610054575f3560e01c806305268cff1461005857806361d027b314610093578063715018a6146100b25780638da5cb5b146100c8578063d0e30db0146100e4578063f2fde38b146100ec575b5f5ffd5b348015610063575f5ffd5b50600154610077906001600160a01b031681565b6040516001600160a01b03909116815260200160405180910390f35b34801561009e575f5ffd5b50600254610077906001600160a01b031681565b3480156100bd575f5ffd5b506100c661010b565b005b3480156100d3575f5ffd5b505f546001600160a01b0316610077565b6100c661011e565b3480156100f7575f5ffd5b506100c661010636600461036d565b6102b5565b6101136102f2565b61011c5f61031e565b565b5f34116101655760405162461bcd60e51b815260206004820152601060248201526f09aeae6e840c8cae0dee6d2e8408aa8960831b60448201526064015b60405180910390fd5b5f610172346103e861039a565b6002546040519192505f916001600160a01b039091169034908381818185875af1925050503d805f81146101c1576040519150601f19603f3d011682016040523d82523d5f602084013e6101c6565b606091505b50509050806102175760405162461bcd60e51b815260206004820152601b60248201527f5472616e7366657220746f207472656173757279206661696c65640000000000604482015260640161015c565b6001546040516340c10f1960e01b8152336004820152602481018490526001600160a01b03909116906340c10f19906044015f604051808303815f87803b158015610260575f5ffd5b505af1158015610272573d5f5f3e3d5ffd5b505060408051348152602081018690523393507f73a19dd210f1a7f902193214c0ee91dd35ee5b4d920cba8d519eca65a7b488ca92500160405180910390a25050565b6102bd6102f2565b6001600160a01b0381166102e657604051631e4fbdf760e01b81525f600482015260240161015c565b6102ef8161031e565b50565b5f546001600160a01b0316331461011c5760405163118cdaa760e01b815233600482015260240161015c565b5f80546001600160a01b038381166001600160a01b0319831681178455604051919092169283917f8be0079c531659141344cd1fd0a4f28419497f9722a3daafe3b4186f6b6457e09190a35050565b5f6020828403121561037d575f5ffd5b81356001600160a01b0381168114610393575f5ffd5b9392505050565b80820281158282048414176103bd57634e487b7160e01b5f52601160045260245ffd5b9291505056fea2646970667358221220370d94208fb6f79c73a166156ddaf650f800903610b3065816a21de0d3bff3a964736f6c634300081c0033",
  "linkReferences": {},
  "deployedLinkReferences": {},
  "immutableReferences": {},
  "inputSourceName": "project/contracts/InvestDAO.sol",
  "buildInfoId": "solc-0_8_28-1834ebf5b9911f8d566fecb0eccdb80388a0a9b2"
}