{
  "_format": "hh3-artifact-1",
  "contractName": "DAOManager",
  "sourceName": "contracts/DAOManager.sol",
  "abi": [
    {
      "inputs": [
        {
          "internalType": "contract IVotes",
          "name": "_token",
          "type": "address"
        },
        {
          "internalType": "contract TimelockController",
          "name": "_timelock",
          "type": "address"
        }
      ],
      "stateMutability": "nonpayable",
      "type": "constructor"
    },
    {
      "inputs": [],
      "name": "CheckpointUnorderedInsertion",
      "type": "error"
    },
    {
      "inputs": [],
      "name": "FailedCall",
      "type": "error"
    },
    {
      "inputs": [
        {
          "internalType": "address",
          "name": "voter",
          "type": "address"
        }
      ],
      "name": "GovernorAlreadyCastVote",
      "type": "error"
    },
    {
      "inputs": [
        {
          "internalType": "uint256",
          "name": "proposalId",
          "type": "uint256"
        }
      ],
      "name": "GovernorAlreadyQueuedProposal",
      "type": "error"
    },
    {
      "inputs": [],
      "name": "GovernorDisabledDeposit",
      "type": "error"
    },
    {
      "inputs": [
        {
          "internalType": "address",
          "name": "proposer",
          "type": "address"
        },
        {
          "internalType": "uint256",
          "name": "votes",
          "type": "uint256"
        },
        {
          "internalType": "uint256",
          "name": "threshold",
          "type": "uint256"
        }
      ],
      "name": "GovernorInsufficientProposerVotes",
      "type": "error"
    },
    {
      "inputs": [
        {
          "internalType": "uint256",
          "name": "targets",
          "type": "uint256"
        },
        {
          "internalType": "uint256",
          "name": "calldatas",
          "type": "uint256"
        },
        {
          "internalType": "uint256",
          "name": "values",
          "type": "uint256"
        }
      ],
      "name": "GovernorInvalidProposalLength",
      "type": "error"
    },
    {
      "inputs": [
        {
          "internalType": "uint256",
          "name": "quorumNumerator",
          "type": "uint256"
        },
        {
          "internalType": "uint256",
          "name": "quorumDenominator",
          "type": "uint256"
        }
      ],
      "name": "GovernorInvalidQuorumFraction",
      "type": "error"
    },
    {
      "inputs": [
        {
          "internalType": "address",
          "name": "voter",
          "type": "address"
        }
      ],
      "name": "GovernorInvalidSignature",
      "type": "error"
    },
    {
      "inputs": [],
      "name": "GovernorInvalidVoteParams",
      "type": "error"
    },
    {
      "inputs": [],
      "name": "GovernorInvalidVoteType",
      "type": "error"
    },
    {
      "inputs": [
        {
          "internalType": "uint256",
          "name": "votingPeriod",
          "type": "uint256"
        }
      ],
      "name": "GovernorInvalidVotingPeriod",
      "type": "error"
    },
    {
      "inputs": [
        {
          "internalType": "uint256",
          "name": "proposalId",
          "type": "uint256"
        }
      ],
      "name": "GovernorNonexistentProposal",
      "type": "error"
    },
    {
      "inputs": [
        {
          "internalType": "uint256",
          "name": "proposalId",
          "type": "uint256"
        }
      ],
      "name": "GovernorNotQueuedProposal",
      "type": "error"
    },
    {
      "inputs": [
        {
          "internalType": "address",
          "name": "account",
          "type": "address"
        }
      ],
      "name": "GovernorOnlyExecutor",
      "type": "error"
    },
    {
      "inputs": [],
      "name": "GovernorQueueNotImplemented",
      "type": "error"
    },
    {
      "inputs": [
        {
          "internalType": "address",
          "name": "proposer",
          "type": "address"
        }
      ],
      "name": "GovernorRestrictedProposer",
      "type": "error"
    },
    {
      "inputs": [
        {
          "internalType": "uint256",
          "name": "proposalId",
          "type": "uint256"
        },
        {
          "internalType": "address",
          "name": "account",
          "type": "address"
        }
      ],
      "name": "GovernorUnableToCancel",
      "type": "error"
    },
    {
      "inputs": [
        {
          "internalType": "uint256",
          "name": "proposalId",
          "type": "uint256"
        },
        {
          "internalType": "enum IGovernor.ProposalState",
          "name": "current",
          "type": "uint8"
        },
        {
          "internalType": "bytes32",
          "name": "expectedStates",
          "type": "bytes32"
        }
      ],
      "name": "GovernorUnexpectedProposalState",
      "type": "error"
    },
    {
      "inputs": [
        {
          "internalType": "address",
          "name": "account",
          "type": "address"
        },
        {
          "internalType": "uint256",
          "name": "currentNonce",
          "type": "uint256"
        }
      ],
      "name": "InvalidAccountNonce",
      "type": "error"
    },
    {
      "inputs": [],
      "name": "InvalidShortString",
      "type": "error"
    },
    {
      "inputs": [
        {
          "internalType": "uint8",
          "name": "bits",
          "type": "uint8"
        },
        {
          "internalType": "uint256",
          "name": "value",
          "type": "uint256"
        }
      ],
      "name": "SafeCastOverflowedUintDowncast",
      "type": "error"
    },
    {
      "inputs": [
        {
          "internalType": "string",
          "name": "str",
          "type": "string"
        }
      ],
      "name": "StringTooLong",
      "type": "error"
    },
    {
      "anonymous": false,
      "inputs": [],
      "name": "EIP712DomainChanged",
      "type": "event"
    },
    {
      "anonymous": false,
      "inputs": [
        {
          "indexed": false,
          "internalType": "uint256",
          "name": "proposalId",
          "type": "uint256"
        }
      ],
      "name": "ProposalCanceled",
      "type": "event"
    },
    {
      "anonymous": false,
      "inputs": [
        {
          "indexed": false,
          "internalType": "uint256",
          "name": "proposalId",
          "type": "uint256"
        },
        {
          "indexed": false,
          "internalType": "address",
          "name": "proposer",
          "type": "address"
        },
        {
          "indexed": false,
          "internalType": "address[]",
          "name": "targets",
          "type": "address[]"
        },
        {
          "indexed": false,
          "internalType": "uint256[]",
          "name": "values",
          "type": "uint256[]"
        },
        {
          "indexed": false,
          "internalType": "string[]",
          "name": "signatures",
          "type": "string[]"
        },
        {
          "indexed": false,
          "internalType": "bytes[]",
          "name": "calldatas",
          "type": "bytes[]"
        },
        {
          "indexed": false,
          "internalType": "uint256",
          "name": "voteStart",
          "type": "uint256"
        },
        {
          "indexed": false,
          "internalType": "uint256",
          "name": "voteEnd",
          "type": "uint256"
        },
        {
          "indexed": false,
          "internalType": "string",
          "name": "description",
          "type": "string"
        }
      ],
      "name": "ProposalCreated",
      "type": "event"
    },
    {
      "anonymous": false,
      "inputs": [
        {
          "indexed": false,
          "internalType": "uint256",
          "name": "proposalId",
          "type": "uint256"
        }
      ],
      "name": "ProposalExecuted",
      "type": "event"
    },
    {
      "anonymous": false,
      "inputs": [
        {
          "indexed": false,
          "internalType": "uint256",
          "name": "proposalId",
          "type": "uint256"
        },
        {
          "indexed": false,
          "internalType": "uint256",
          "name": "etaSeconds",
          "type": "uint256"
        }
      ],
      "name": "ProposalQueued",
      "type": "event"
    },
    {
      "anonymous": false,
      "inputs": [
        {
          "indexed": false,
          "internalType": "uint256",
          "name": "oldProposalThreshold",
          "type": "uint256"
        },
        {
          "indexed": false,
          "internalType": "uint256",
          "name": "newProposalThreshold",
          "type": "uint256"
        }
      ],
      "name": "ProposalThresholdSet",
      "type": "event"
    },
    {
      "anonymous": false,
      "inputs": [
        {
          "indexed": false,
          "internalType": "uint256",
          "name": "oldQuorumNumerator",
          "type": "uint256"
        },
        {
          "indexed": false,
          "internalType": "uint256",
          "name": "newQuorumNumerator",
          "type": "uint256"
        }
      ],
      "name": "QuorumNumeratorUpdated",
      "type": "event"
    },
    {
      "anonymous": false,
      "inputs": [
        {
          "indexed": false,
          "internalType": "address",
          "name": "oldTimelock",
          "type": "address"
        },
        {
          "indexed": false,
          "internalType": "address",
          "name": "newTimelock",
          "type": "address"
        }
      ],
      "name": "TimelockChange",
      "type": "event"
    },
    {
      "anonymous": false,
      "inputs": [
        {
          "indexed": true,
          "internalType": "address",
          "name": "voter",
          "type": "address"
        },
        {
          "indexed": false,
          "internalType": "uint256",
          "name": "proposalId",
          "type": "uint256"
        },
        {
          "indexed": false,
          "internalType": "uint8",
          "name": "support",
          "type": "uint8"
        },
        {
          "indexed": false,
          "internalType": "uint256",
          "name": "weight",
          "type": "uint256"
        },
        {
          "indexed": false,
          "internalType": "string",
          "name": "reason",
          "type": "string"
        }
      ],
      "name": "VoteCast",
      "type": "event"
    },
    {
      "anonymous": false,
      "inputs": [
        {
          "indexed": true,
          "internalType": "address",
          "name": "voter",
          "type": "address"
        },
        {
          "indexed": false,
          "internalType": "uint256",
          "name": "proposalId",
          "type": "uint256"
        },
        {
          "indexed": false,
          "internalType": "uint8",
          "name": "support",
          "type": "uint8"
        },
        {
          "indexed": false,
          "internalType": "uint256",
          "name": "weight",
          "type": "uint256"
        },
        {
          "indexed": false,
          "internalType": "string",
          "name": "reason",
          "type": "string"
        },
        {
          "indexed": false,
          "internalType": "bytes",
          "name": "params",
          "type": "bytes"
        }
      ],
      "name": "VoteCastWithParams",
      "type": "event"
    },
    {
      "anonymous": false,
      "inputs": [
        {
          "indexed": false,
          "internalType": "uint256",
          "name": "oldVotingDelay",
          "type": "uint256"
        },
        {
          "indexed": false,
          "internalType": "uint256",
          "name": "newVotingDelay",
          "type": "uint256"
        }
      ],
      "name": "VotingDelaySet",
      "type": "event"
    },
    {
      "anonymous": false,
      "inputs": [
        {
          "indexed": false,
          "internalType": "uint256",
          "name": "oldVotingPeriod",
          "type": "uint256"
        },
        {
          "indexed": false,
          "internalType": "uint256",
          "name": "newVotingPeriod",
          "type": "uint256"
        }
      ],
      "name": "VotingPeriodSet",
      "type": "event"
    },
    {
      "inputs": [],
      "name": "BALLOT_TYPEHASH",
      "outputs": [
        {
          "internalType": "bytes32",
          "name": "",
          "type": "bytes32"
        }
      ],
      "stateMutability": "view",
      "type": "function"
    },
    {
      "inputs": [],
      "name": "CLOCK_MODE",
      "outputs": [
        {
          "internalType": "string",
          "name": "",
          "type": "string"
        }
      ],
      "stateMutability": "view",
      "type": "function"
    },
    {
      "inputs": [],
      "name": "COUNTING_MODE",
      "outputs": [
        {
          "internalType": "string",
          "name": "",
          "type": "string"
        }
      ],
      "stateMutability": "pure",
      "type": "function"
    },
    {
      "inputs": [],
      "name": "EXTENDED_BALLOT_TYPEHASH",
      "outputs": [
        {
          "internalType": "bytes32",
          "name": "",
          "type": "bytes32"
        }
      ],
      "stateMutability": "view",
      "type": "function"
    },
    {
      "inputs": [],
      "name": "HIGH_TIER_THRESHOLD",
      "outputs": [
        {
          "internalType": "uint256",
          "name": "",
          "type": "uint256"
        }
      ],
      "stateMutability": "view",
      "type": "function"
    },
    {
      "inputs": [
        {
          "internalType": "address[]",
          "name": "targets",
          "type": "address[]"
        },
        {
          "internalType": "uint256[]",
          "name": "values",
          "type": "uint256[]"
        },
        {
          "internalType": "bytes[]",
          "name": "calldatas",
          "type": "bytes[]"
        },
        {
          "internalType": "bytes32",
          "name": "descriptionHash",
          "type": "bytes32"
        }
      ],
      "name": "cancel",
      "outputs": [
        {
          "internalType": "uint256",
          "name": "",
          "type": "uint256"
        }
      ],
      "stateMutability": "nonpayable",
      "type": "function"
    },
    {
      "inputs": [
        {
          "internalType": "uint256",
          "name": "proposalId",
          "type": "uint256"
        },
        {
          "internalType": "uint8",
          "name": "support",
          "type": "uint8"
        }
      ],
      "name": "castVote",
      "outputs": [
        {
          "internalType": "uint256",
          "name": "",
          "type": "uint256"
        }
      ],
      "stateMutability": "nonpayable",
      "type": "function"
    },
    {
      "inputs": [
        {
          "internalType": "uint256",
          "name": "proposalId",
          "type": "uint256"
        },
        {
          "internalType": "uint8",
          "name": "support",
          "type": "uint8"
        },
        {
          "internalType": "address",
          "name": "voter",
          "type": "address"
        },
        {
          "internalType": "bytes",
          "name": "signature",
          "type": "bytes"
        }
      ],
      "name": "castVoteBySig",
      "outputs": [
        {
          "internalType": "uint256",
          "name": "",
          "type": "uint256"
        }
      ],
      "stateMutability": "nonpayable",
      "type": "function"
    },
    {
      "inputs": [
        {
          "internalType": "uint256",
          "name": "proposalId",
          "type": "uint256"
        },
        {
          "internalType": "uint8",
          "name": "support",
          "type": "uint8"
        },
        {
          "internalType": "string",
          "name": "reason",
          "type": "string"
        }
      ],
      "name": "castVoteWithReason",
      "outputs": [
        {
          "internalType": "uint256",
          "name": "",
          "type": "uint256"
        }
      ],
      "stateMutability": "nonpayable",
      "type": "function"
    },
    {
      "inputs": [
        {
          "internalType": "uint256",
          "name": "proposalId",
          "type": "uint256"
        },
        {
          "internalType": "uint8",
          "name": "support",
          "type": "uint8"
        },
        {
          "internalType": "string",
          "name": "reason",
          "type": "string"
        },
        {
          "internalType": "bytes",
          "name": "params",
          "type": "bytes"
        }
      ],
      "name": "castVoteWithReasonAndParams",
      "outputs": [
        {
          "internalType": "uint256",
          "name": "",
          "type": "uint256"
        }
      ],
      "stateMutability": "nonpayable",
      "type": "function"
    },
    {
      "inputs": [
        {
          "internalType": "uint256",
          "name": "proposalId",
          "type": "uint256"
        },
        {
          "internalType": "uint8",
          "name": "support",
          "type": "uint8"
        },
        {
          "internalType": "address",
          "name": "voter",
          "type": "address"
        },
        {
          "internalType": "string",
          "name": "reason",
          "type": "string"
        },
        {
          "internalType": "bytes",
          "name": "params",
          "type": "bytes"
        },
        {
          "internalType": "bytes",
          "name": "signature",
          "type": "bytes"
        }
      ],
      "name": "castVoteWithReasonAndParamsBySig",
      "outputs": [
        {
          "internalType": "uint256",
          "name": "",
          "type": "uint256"
        }
      ],
      "stateMutability": "nonpayable",
      "type": "function"
    },
    {
      "inputs": [],
      "name": "clock",
      "outputs": [
        {
          "internalType": "uint48",
          "name": "",
          "type": "uint48"
        }
      ],
      "stateMutability": "view",
      "type": "function"
    },
    {
      "inputs": [],
      "name": "eip712Domain",
      "outputs": [
        {
          "internalType": "bytes1",
          "name": "fields",
          "type": "bytes1"
        },
        {
          "internalType": "string",
          "name": "name",
          "type": "string"
        },
        {
          "internalType": "string",
          "name": "version",
          "type": "string"
        },
        {
          "internalType": "uint256",
          "name": "chainId",
          "type": "uint256"
        },
        {
          "internalType": "address",
          "name": "verifyingContract",
          "type": "address"
        },
        {
          "internalType": "bytes32",
          "name": "salt",
          "type": "bytes32"
        },
        {
          "internalType": "uint256[]",
          "name": "extensions",
          "type": "uint256[]"
        }
      ],
      "stateMutability": "view",
      "type": "function"
    },
    {
      "inputs": [
        {
          "internalType": "address[]",
          "name": "targets",
          "type": "address[]"
        },
        {
          "internalType": "uint256[]",
          "name": "values",
          "type": "uint256[]"
        },
        {
          "internalType": "bytes[]",
          "name": "calldatas",
          "type": "bytes[]"
        },
        {
          "internalType": "bytes32",
          "name": "descriptionHash",
          "type": "bytes32"
        }
      ],
      "name": "emergencyVeto",
      "outputs": [],
      "stateMutability": "nonpayable",
      "type": "function"
    },
    {
      "inputs": [
        {
          "internalType": "address[]",
          "name": "targets",
          "type": "address[]"
        },
        {
          "internalType": "uint256[]",
          "name": "values",
          "type": "uint256[]"
        },
        {
          "internalType": "bytes[]",
          "name": "calldatas",
          "type": "bytes[]"
        },
        {
          "internalType": "bytes32",
          "name": "descriptionHash",
          "type": "bytes32"
        }
      ],
      "name": "execute",
      "outputs": [
        {
          "internalType": "uint256",
          "name": "",
          "type": "uint256"
        }
      ],
      "stateMutability": "payable",
      "type": "function"
    },
    {
      "inputs": [
        {
          "internalType": "address[]",
          "name": "targets",
          "type": "address[]"
        },
        {
          "internalType": "uint256[]",
          "name": "values",
          "type": "uint256[]"
        },
        {
          "internalType": "bytes[]",
          "name": "calldatas",
          "type": "bytes[]"
        },
        {
          "internalType": "bytes32",
          "name": "descriptionHash",
          "type": "bytes32"
        }
      ],
      "name": "getProposalId",
      "outputs": [
        {
          "internalType": "uint256",
          "name": "",
          "type": "uint256"
        }
      ],
      "stateMutability": "view",
      "type": "function"
    },
    {
      "inputs": [
        {
          "internalType": "uint256",
          "name": "proposalId",
          "type": "uint256"
        },
        {
          "internalType": "uint256",
          "name": "blockNumber",
          "type": "uint256"
        }
      ],
      "name": "getQuorumRequirement",
      "outputs": [
        {
          "internalType": "uint256",
          "name": "",
          "type": "uint256"
        }
      ],
      "stateMutability": "view",
      "type": "function"
    },
    {
      "inputs": [
        {
          "internalType": "address",
          "name": "account",
          "type": "address"
        },
        {
          "internalType": "uint256",
          "name": "timepoint",
          "type": "uint256"
        }
      ],
      "name": "getVotes",
      "outputs": [
        {
          "internalType": "uint256",
          "name": "",
          "type": "uint256"
        }
      ],
      "stateMutability": "view",
      "type": "function"
    },
    {
      "inputs": [
        {
          "internalType": "address",
          "name": "account",
          "type": "address"
        },
        {
          "internalType": "uint256",
          "name": "timepoint",
          "type": "uint256"
        },
        {
          "internalType": "bytes",
          "name": "params",
          "type": "bytes"
        }
      ],
      "name": "getVotesWithParams",
      "outputs": [
        {
          "internalType": "uint256",
          "name": "",
          "type": "uint256"
        }
      ],
      "stateMutability": "view",
      "type": "function"
    },
    {
      "inputs": [
        {
          "internalType": "uint256",
          "name": "proposalId",
          "type": "uint256"
        },
        {
          "internalType": "address",
          "name": "account",
          "type": "address"
        }
      ],
      "name": "hasVoted",
      "outputs": [
        {
          "internalType": "bool",
          "name": "",
          "type": "bool"
        }
      ],
      "stateMutability": "view",
      "type": "function"
    },
    {
      "inputs": [
        {
          "internalType": "address[]",
          "name": "targets",
          "type": "address[]"
        },
        {
          "internalType": "uint256[]",
          "name": "values",
          "type": "uint256[]"
        },
        {
          "internalType": "bytes[]",
          "name": "calldatas",
          "type": "bytes[]"
        },
        {
          "internalType": "bytes32",
          "name": "descriptionHash",
          "type": "bytes32"
        }
      ],
      "name": "hashProposal",
      "outputs": [
        {
          "internalType": "uint256",
          "name": "",
          "type": "uint256"
        }
      ],
      "stateMutability": "pure",
      "type": "function"
    },
    {
      "inputs": [],
      "name": "name",
      "outputs": [
        {
          "internalType": "string",
          "name": "",
          "type": "string"
        }
      ],
      "stateMutability": "view",
      "type": "function"
    },
    {
      "inputs": [
        {
          "internalType": "address",
          "name": "owner",
          "type": "address"
        }
      ],
      "name": "nonces",
      "outputs": [
        {
          "internalType": "uint256",
          "name": "",
          "type": "uint256"
        }
      ],
      "stateMutability": "view",
      "type": "function"
    },
    {
      "inputs": [
        {
          "internalType": "address",
          "name": "",
          "type": "address"
        },
        {
          "internalType": "address",
          "name": "",
          "type": "address"
        },
        {
          "internalType": "uint256[]",
          "name": "",
          "type": "uint256[]"
        },
        {
          "internalType": "uint256[]",
          "name": "",
          "type": "uint256[]"
        },
        {
          "internalType": "bytes",
          "name": "",
          "type": "bytes"
        }
      ],
      "name": "onERC1155BatchReceived",
      "outputs": [
        {
          "internalType": "bytes4",
          "name": "",
          "type": "bytes4"
        }
      ],
      "stateMutability": "nonpayable",
      "type": "function"
    },
    {
      "inputs": [
        {
          "internalType": "address",
          "name": "",
          "type": "address"
        },
        {
          "internalType": "address",
          "name": "",
          "type": "address"
        },
        {
          "internalType": "uint256",
          "name": "",
          "type": "uint256"
        },
        {
          "internalType": "uint256",
          "name": "",
          "type": "uint256"
        },
        {
          "internalType": "bytes",
          "name": "",
          "type": "bytes"
        }
      ],
      "name": "onERC1155Received",
      "outputs": [
        {
          "internalType": "bytes4",
          "name": "",
          "type": "bytes4"
        }
      ],
      "stateMutability": "nonpayable",
      "type": "function"
    },
    {
      "inputs": [
        {
          "internalType": "address",
          "name": "",
          "type": "address"
        },
        {
          "internalType": "address",
          "name": "",
          "type": "address"
        },
        {
          "internalType": "uint256",
          "name": "",
          "type": "uint256"
        },
        {
          "internalType": "bytes",
          "name": "",
          "type": "bytes"
        }
      ],
      "name": "onERC721Received",
      "outputs": [
        {
          "internalType": "bytes4",
          "name": "",
          "type": "bytes4"
        }
      ],
      "stateMutability": "nonpayable",
      "type": "function"
    },
    {
      "inputs": [
        {
          "internalType": "uint256",
          "name": "proposalId",
          "type": "uint256"
        }
      ],
      "name": "proposalDeadline",
      "outputs": [
        {
          "internalType": "uint256",
          "name": "",
          "type": "uint256"
        }
      ],
      "stateMutability": "view",
      "type": "function"
    },
    {
      "inputs": [
        {
          "internalType": "uint256",
          "name": "proposalId",
          "type": "uint256"
        }
      ],
      "name": "proposalEta",
      "outputs": [
        {
          "internalType": "uint256",
          "name": "",
          "type": "uint256"
        }
      ],
      "stateMutability": "view",
      "type": "function"
    },
    {
      "inputs": [
        {
          "internalType": "uint256",
          "name": "proposalId",
          "type": "uint256"
        }
      ],
      "name": "proposalNeedsQueuing",
      "outputs": [
        {
          "internalType": "bool",
          "name": "",
          "type": "bool"
        }
      ],
      "stateMutability": "view",
      "type": "function"
    },
    {
      "inputs": [
        {
          "internalType": "uint256",
          "name": "proposalId",
          "type": "uint256"
        }
      ],
      "name": "proposalProposer",
      "outputs": [
        {
          "internalType": "address",
          "name": "",
          "type": "address"
        }
      ],
      "stateMutability": "view",
      "type": "function"
    },
    {
      "inputs": [
        {
          "internalType": "uint256",
          "name": "proposalId",
          "type": "uint256"
        }
      ],
      "name": "proposalSnapshot",
      "outputs": [
        {
          "internalType": "uint256",
          "name": "",
          "type": "uint256"
        }
      ],
      "stateMutability": "view",
      "type": "function"
    },
    {
      "inputs": [],
      "name": "proposalThreshold",
      "outputs": [
        {
          "internalType": "uint256",
          "name": "",
          "type": "uint256"
        }
      ],
      "stateMutability": "view",
      "type": "function"
    },
    {
      "inputs": [
        {
          "internalType": "uint256",
          "name": "proposalId",
          "type": "uint256"
        }
      ],
      "name": "proposalVotes",
      "outputs": [
        {
          "internalType": "uint256",
          "name": "againstVotes",
          "type": "uint256"
        },
        {
          "internalType": "uint256",
          "name": "forVotes",
          "type": "uint256"
        },
        {
          "internalType": "uint256",
          "name": "abstainVotes",
          "type": "uint256"
        }
      ],
      "stateMutability": "view",
      "type": "function"
    },
    {
      "inputs": [
        {
          "internalType": "address[]",
          "name": "targets",
          "type": "address[]"
        },
        {
          "internalType": "uint256[]",
          "name": "values",
          "type": "uint256[]"
        },
        {
          "internalType": "bytes[]",
          "name": "calldatas",
          "type": "bytes[]"
        },
        {
          "internalType": "string",
          "name": "description",
          "type": "string"
        }
      ],
      "name": "propose",
      "outputs": [
        {
          "internalType": "uint256",
          "name": "",
          "type": "uint256"
        }
      ],
      "stateMutability": "nonpayable",
      "type": "function"
    },
    {
      "inputs": [
        {
          "internalType": "address[]",
          "name": "targets",
          "type": "address[]"
        },
        {
          "internalType": "uint256[]",
          "name": "values",
          "type": "uint256[]"
        },
        {
          "internalType": "bytes[]",
          "name": "calldatas",
          "type": "bytes[]"
        },
        {
          "internalType": "bytes32",
          "name": "descriptionHash",
          "type": "bytes32"
        }
      ],
      "name": "queue",
      "outputs": [
        {
          "internalType": "uint256",
          "name": "",
          "type": "uint256"
        }
      ],
      "stateMutability": "nonpayable",
      "type": "function"
    },
    {
      "inputs": [
        {
          "internalType": "uint256",
          "name": "blockNumber",
          "type": "uint256"
        }
      ],
      "name": "quorum",
      "outputs": [
        {
          "internalType": "uint256",
          "name": "",
          "type": "uint256"
        }
      ],
      "stateMutability": "view",
      "type": "function"
    },
    {
      "inputs": [],
      "name": "quorumDenominator",
      "outputs": [
        {
          "internalType": "uint256",
          "name": "",
          "type": "uint256"
        }
      ],
      "stateMutability": "view",
      "type": "function"
    },
    {
      "inputs": [
        {
          "internalType": "uint256",
          "name": "timepoint",
          "type": "uint256"
        }
      ],
      "name": "quorumNumerator",
      "outputs": [
        {
          "internalType": "uint256",
          "name": "",
          "type": "uint256"
        }
      ],
      "stateMutability": "view",
      "type": "function"
    },
    {
      "inputs": [],
      "name": "quorumNumerator",
      "outputs": [
        {
          "internalType": "uint256",
          "name": "",
          "type": "uint256"
        }
      ],
      "stateMutability": "view",
      "type": "function"
    },
    {
      "inputs": [
        {
          "internalType": "address",
          "name": "target",
          "type": "address"
        },
        {
          "internalType": "uint256",
          "name": "value",
          "type": "uint256"
        },
        {
          "internalType": "bytes",
          "name": "data",
          "type": "bytes"
        }
      ],
      "name": "relay",
      "outputs": [],
      "stateMutability": "payable",
      "type": "function"
    },
    {
      "inputs": [
        {
          "internalType": "uint256",
          "name": "newProposalThreshold",
          "type": "uint256"
        }
      ],
      "name": "setProposalThreshold",
      "outputs": [],
      "stateMutability": "nonpayable",
      "type": "function"
    },
    {
      "inputs": [
        {
          "internalType": "uint48",
          "name": "newVotingDelay",
          "type": "uint48"
        }
      ],
      "name": "setVotingDelay",
      "outputs": [],
      "stateMutability": "nonpayable",
      "type": "function"
    },
    {
      "inputs": [
        {
          "internalType": "uint32",
          "name": "newVotingPeriod",
          "type": "uint32"
        }
      ],
      "name": "setVotingPeriod",
      "outputs": [],
      "stateMutability": "nonpayable",
      "type": "function"
    },
    {
      "inputs": [
        {
          "internalType": "uint256",
          "name": "proposalId",
          "type": "uint256"
        }
      ],
      "name": "state",
      "outputs": [
        {
          "internalType": "enum IGovernor.ProposalState",
          "name": "",
          "type": "uint8"
        }
      ],
      "stateMutability": "view",
      "type": "function"
    },
    {
      "inputs": [
        {
          "internalType": "bytes4",
          "name": "interfaceId",
          "type": "bytes4"
        }
      ],
      "name": "supportsInterface",
      "outputs": [
        {
          "internalType": "bool",
          "name": "",
          "type": "bool"
        }
      ],
      "stateMutability": "view",
      "type": "function"
    },
    {
      "inputs": [],
      "name": "timelock",
      "outputs": [
        {
          "internalType": "address",
          "name": "",
          "type": "address"
        }
      ],
      "stateMutability": "view",
      "type": "function"
    },
    {
      "inputs": [],
      "name": "token",
      "outputs": [
        {
          "internalType": "contract IERC5805",
          "name": "",
          "type": "address"
        }
      ],
      "stateMutability": "view",
      "type": "function"
    },
    {
      "inputs": [
        {
          "internalType": "uint256",
          "name": "newQuorumNumerator",
          "type": "uint256"
        }
      ],
      "name": "updateQuorumNumerator",
      "outputs": [],
      "stateMutability": "nonpayable",
      "type": "function"
    },
    {
      "inputs": [
        {
          "internalType": "contract TimelockController",
          "name": "newTimelock",
          "type": "address"
        }
      ],
      "name": "updateTimelock",
      "outputs": [],
      "stateMutability": "nonpayable",
      "type": "function"
    },
    {
      "inputs": [],
      "name": "version",
      "outputs": [
        {
          "internalType": "string",
          "name": "",
          "type": "string"
        }
      ],
      "stateMutability": "view",
      "type": "function"
    },
    {
      "inputs": [],
      "name": "votingDelay",
      "outputs": [
        {
          "internalType": "uint256",
          "name": "",
          "type": "uint256"
        }
      ],
      "stateMutability": "view",
      "type": "function"
    },
    {
      "inputs": [],
      "name": "votingPeriod",
      "outputs": [
        {
          "internalType": "uint256",
          "name": "",
          "type": "uint256"
        }
      ],
      "stateMutability": "view",
      "type": "function"
    },
    {
      "stateMutability": "payable",
      "type": "receive"
    }
  ],
  "bytecode": "0x610180604052348015610010575f5ffd5b50604051614f94380380614f9483398101604081905261002f91610721565b80600483600161c4e05f6040518060400160405280600f81526020016e43727970746f496e7665737444414f60881b8152508061007061017360201b60201c565b61007a825f61018e565b6101205261008981600161018e565b61014052815160208084019190912060e052815190820120610100524660a05261011560e05161010051604080517f8b73c3c69bb8fe3d512ecc4cf759cc79239f7b179b0ffacaa9a75d522b39400f60208201529081019290925260608201524660808201523060a08201525f9060c00160405160208183030381529060405280519060200120905090565b60805250503060c052600361012a82826107f1565b506101369050836101c0565b61013f82610226565b610148816102ca565b5050506001600160a01b0316610160526101618161030b565b5061016b816103a0565b505050610947565b6040805180820190915260018152603160f81b602082015290565b5f6020835110156101a9576101a283610409565b90506101ba565b816101b484826107f1565b5060ff90505b92915050565b6008546040805165ffffffffffff928316815291831660208301527fc565b045403dc03c2eea82b81a0465edad9e2e7fc4d97e11421c209da93d7a93910160405180910390a16008805465ffffffffffff191665ffffffffffff92909216919091179055565b8063ffffffff165f036102535760405163f1cfbf0560e01b81525f60048201526024015b60405180910390fd5b6008546040805163ffffffff66010000000000009093048316815291831660208301527f7e3f7f0708a84de9203036abaa450dccc85ad5ff52f78c170f3edb55cf5e8828910160405180910390a16008805463ffffffff90921666010000000000000263ffffffff60301b19909216919091179055565b60075460408051918252602082018390527fccb45da8d5717e6c4544694297c4ba5cf151d455c9bb0ed4fc7a38411bc05461910160405180910390a1600755565b6064808211156103385760405163243e544560e01b8152600481018390526024810182905260440161024a565b5f610341610446565b905061036061034e61045f565b610357856104d9565b600a9190610510565b505060408051828152602081018590527f0553476bf02ef2726e8ce5ced78d63e26e602e4a2257b1f559418e24b4633997910160405180910390a1505050565b600b54604080516001600160a01b03928316815291831660208301527f08f74ea46ef7894f65eabfb5e6e695de773a000b47c529ab559178069b226401910160405180910390a1600b80546001600160a01b0319166001600160a01b0392909216919091179055565b5f5f829050601f81511115610433578260405163305a27a960e01b815260040161024a91906108ab565b805161043e826108e0565b179392505050565b5f610451600a61052a565b6001600160d01b0316905090565b5f61046a6101605190565b6001600160a01b03166391ddadf46040518163ffffffff1660e01b8152600401602060405180830381865afa9250505080156104c3575060408051601f3d908101601f191682019092526104c091810190610903565b60015b6104d4576104cf610572565b905090565b919050565b5f6001600160d01b0382111561050c576040516306dfcc6560e41b815260d060048201526024810183905260440161024a565b5090565b5f8061051d85858561057c565b915091505b935093915050565b80545f9080156105695761055083610543600184610928565b5f91825260209091200190565b54660100000000000090046001600160d01b031661056b565b5f5b9392505050565b5f6104cf436106d8565b82545f908190801561067b575f61059887610543600185610928565b805490915065ffffffffffff80821691660100000000000090046001600160d01b03169088168211156105de57604051632520601d60e01b815260040160405180910390fd5b8765ffffffffffff168265ffffffffffff160361061a57825465ffffffffffff1666010000000000006001600160d01b0389160217835561066d565b6040805180820190915265ffffffffffff808a1682526001600160d01b03808a1660208085019182528d54600181018f555f8f815291909120945191519092166601000000000000029216919091179101555b945085935061052292505050565b50506040805180820190915265ffffffffffff80851682526001600160d01b0380851660208085019182528854600181018a555f8a8152918220955192519093166601000000000000029190931617920191909155905081610522565b5f65ffffffffffff82111561050c576040516306dfcc6560e41b8152603060048201526024810183905260440161024a565b6001600160a01b038116811461071e575f5ffd5b50565b5f5f60408385031215610732575f5ffd5b825161073d8161070a565b602084015190925061074e8161070a565b809150509250929050565b634e487b7160e01b5f52604160045260245ffd5b600181811c9082168061078157607f821691505b60208210810361079f57634e487b7160e01b5f52602260045260245ffd5b50919050565b601f8211156107ec57805f5260205f20601f840160051c810160208510156107ca5750805b601f840160051c820191505b818110156107e9575f81556001016107d6565b50505b505050565b81516001600160401b0381111561080a5761080a610759565b61081e81610818845461076d565b846107a5565b6020601f821160018114610850575f83156108395750848201515b5f19600385901b1c1916600184901b1784556107e9565b5f84815260208120601f198516915b8281101561087f578785015182556020948501946001909201910161085f565b508482101561089c57868401515f19600387901b60f8161c191681555b50505050600190811b01905550565b602081525f82518060208401528060208501604085015e5f604082850101526040601f19601f83011684010191505092915050565b8051602080830151919081101561079f575f1960209190910360031b1b16919050565b5f60208284031215610913575f5ffd5b815165ffffffffffff8116811461056b575f5ffd5b818103818111156101ba57634e487b7160e01b5f52601160045260245ffd5b60805160a05160c05160e051610100516101205161014051610160516145cf6109c55f395f8181610a6801528181610ed00152818161124a0152818161137601528181611d7d0152611fd701525f611cc101525f611c9501525f612efa01525f612ed201525f612e2d01525f612e5701525f612e8101526145cf5ff3fe6080604052600436106102f6575f3560e01c80638ff262e311610189578063bc197c81116100d8578063deaaa7cc11610092578063ece40cc11161006d578063ece40cc1146109fd578063f23a6e6114610a1c578063f8ce560a14610a3b578063fc0c546a14610a5a575f5ffd5b8063deaaa7cc1461098c578063e540d01d146109bf578063eb9019d4146109de575f5ffd5b8063bc197c81146108ba578063c01f9e37146108d9578063c28bc2fa146108f8578063c59057e41461090b578063d33219b41461092a578063dd4e2ba514610947575f5ffd5b8063a890c91011610143578063ab58fb8e1161011e578063ab58fb8e14610832578063b1f1a76914610868578063b58131b014610887578063bbc84eec1461089b575f5ffd5b8063a890c910146107d5578063a8f8a668146107f4578063a9a9529414610813575f5ffd5b80638ff262e31461072a57806391ddadf41461074957806397c3d33414610774578063994c7d63146107875780639a802a6d146107a2578063a7713a70146107c1575f5ffd5b8063452115d6116102455780635f398a14116101ff5780637b3c71d3116101da5780637b3c71d3146106915780637d5e81e2146106b05780637ecebe00146106cf57806384b0196e14610703575f5ffd5b80635f398a141461063457806360c4247f146106535780637905188714610672575f5ffd5b8063452115d6146105605780634bf5d7e91461057f578063544ffc9c1461059357806354fd4d50146105cd57806356781388146105f65780635b8d0e0d14610615575f5ffd5b8063160cbed7116102b05780632fe3e2611161028b5780632fe3e261146104a55780633932abb1146104d85780633e4f49e6146104ec5780634385963214610518575f5ffd5b8063160cbed7146104545780632656227d146104735780632d63f69314610486575f5ffd5b806301ffc9a71461033157806302a251a31461036557806306f3f9e61461039057806306fdde03146103af578063143489d0146103d0578063150b7a021461041c575f5ffd5b3661032d5730610304610a8c565b6001600160a01b03161461032b57604051637485328f60e11b815260040160405180910390fd5b005b5f5ffd5b34801561033c575f5ffd5b5061035061034b366004613594565b610aa4565b60405190151581526020015b60405180910390f35b348015610370575f5ffd5b50600854600160301b900463ffffffff165b60405190815260200161035c565b34801561039b575f5ffd5b5061032b6103aa3660046135bb565b610b10565b3480156103ba575f5ffd5b506103c3610b24565b60405161035c9190613600565b3480156103db575f5ffd5b506104046103ea3660046135bb565b5f908152600460205260409020546001600160a01b031690565b6040516001600160a01b03909116815260200161035c565b348015610427575f5ffd5b5061043b6104363660046136e9565b610bb4565b6040516001600160e01b0319909116815260200161035c565b34801561045f575f5ffd5b5061038261046e3660046138af565b610bf6565b6103826104813660046138af565b610cc2565b348015610491575f5ffd5b506103826104a03660046135bb565b610e2a565b3480156104b0575f5ffd5b506103827f3e83946653575f9a39005e1545185629e92736b7528ab20ca3816f315424a81181565b3480156104e3575f5ffd5b50610382610e4a565b3480156104f7575f5ffd5b5061050b6105063660046135bb565b610e5c565b60405161035c9190613976565b348015610523575f5ffd5b50610350610532366004613984565b5f8281526009602090815260408083206001600160a01b038516845260030190915290205460ff1692915050565b34801561056b575f5ffd5b5061038261057a3660046138af565b610e66565b34801561058a575f5ffd5b506103c3610ecc565b34801561059e575f5ffd5b506105b26105ad3660046135bb565b610f8c565b6040805193845260208401929092529082015260600161035c565b3480156105d8575f5ffd5b506040805180820190915260018152603160f81b60208201526103c3565b348015610601575f5ffd5b506103826106103660046139c2565b610fb1565b348015610620575f5ffd5b5061038261062f366004613a30565b610fd8565b34801561063f575f5ffd5b5061038261064e366004613aec565b611095565b34801561065e575f5ffd5b5061038261066d3660046135bb565b6110dd565b34801561067d575f5ffd5b5061032b61068c366004613b80565b6110e9565b34801561069c575f5ffd5b506103826106ab366004613b9b565b6110fa565b3480156106bb575f5ffd5b506103826106ca366004613bf0565b61114a565b3480156106da575f5ffd5b506103826106e9366004613cac565b6001600160a01b03165f9081526002602052604090205490565b34801561070e575f5ffd5b506107176111ad565b60405161035c9796959493929190613d01565b348015610735575f5ffd5b50610382610744366004613d70565b6111ef565b348015610754575f5ffd5b5061075d611247565b60405165ffffffffffff909116815260200161035c565b34801561077f575f5ffd5b506064610382565b348015610792575f5ffd5b50610382678ac7230489e8000081565b3480156107ad575f5ffd5b506103826107bc366004613dbd565b6112ce565b3480156107cc575f5ffd5b506103826112e4565b3480156107e0575f5ffd5b5061032b6107ef366004613cac565b6112fd565b3480156107ff575f5ffd5b5061038261080e3660046138af565b61130e565b34801561081e575f5ffd5b5061035061082d3660046135bb565b61131b565b34801561083d575f5ffd5b5061038261084c3660046135bb565b5f9081526004602052604090206001015465ffffffffffff1690565b348015610873575f5ffd5b5061032b6108823660046138af565b611323565b348015610892575f5ffd5b5061038261133e565b3480156108a6575f5ffd5b506103826108b5366004613e11565b611348565b3480156108c5575f5ffd5b5061043b6108d4366004613e31565b61141d565b3480156108e4575f5ffd5b506103826108f33660046135bb565b611460565b61032b610906366004613ec8565b6114a2565b348015610916575f5ffd5b506103826109253660046138af565b61151e565b348015610935575f5ffd5b50600b546001600160a01b0316610404565b348015610952575f5ffd5b506040805180820190915260208082527f737570706f72743d627261766f2671756f72756d3d666f722c6162737461696e908201526103c3565b348015610997575f5ffd5b506103827ff2aad550cf55f045cb27e9c559f9889fdfb6e6cdaa032301d6ea397784ae51d781565b3480156109ca575f5ffd5b5061032b6109d9366004613f07565b611557565b3480156109e9575f5ffd5b506103826109f8366004613f2a565b611568565b348015610a08575f5ffd5b5061032b610a173660046135bb565b611587565b348015610a27575f5ffd5b5061043b610a36366004613f54565b611598565b348015610a46575f5ffd5b50610382610a553660046135bb565b6115db565b348015610a65575f5ffd5b507f0000000000000000000000000000000000000000000000000000000000000000610404565b5f610a9f600b546001600160a01b031690565b905090565b5f6001600160e01b031982166366defe7760e11b1480610ad457506001600160e01b031982166332a2ad4360e11b145b80610aef57506001600160e01b03198216630271189760e51b145b80610b0a57506301ffc9a760e01b6001600160e01b03198316145b92915050565b610b186115e5565b610b218161165e565b50565b606060038054610b3390613fab565b80601f0160208091040260200160405190810160405280929190818152602001828054610b5f90613fab565b8015610baa5780601f10610b8157610100808354040283529160200191610baa565b820191905f5260205f20905b815481529060010190602001808311610b8d57829003601f168201915b5050505050905090565b5f30610bbe610a8c565b6001600160a01b031614610be557604051637485328f60e11b815260040160405180910390fd5b50630a85bd0160e11b949350505050565b5f5f610c048686868661130e565b9050610c1981610c1460046116f3565b611715565b505f610c288288888888611752565b905065ffffffffffff811615610c9f575f82815260046020908152604091829020600101805465ffffffffffff191665ffffffffffff85169081179091558251858152918201527f9a2e42fd6722813d69113e7d0079d3d940171428df7373df9c7f7617cfda2892910160405180910390a1610cb8565b604051634844252360e11b815260040160405180910390fd5b5095945050505050565b5f5f610cd08686868661130e565b9050610cf081610ce060056116f3565b610cea60046116f3565b17611715565b505f818152600460205260409020805460ff60f01b1916600160f01b17905530610d18610a8c565b6001600160a01b031614610da1575f5b8651811015610d9f57306001600160a01b0316878281518110610d4d57610d4d613fe3565b60200260200101516001600160a01b031603610d9757610d97858281518110610d7857610d78613fe3565b602002602001015180519060200120600561176090919063ffffffff16565b600101610d28565b505b610dae81878787876117c1565b30610db7610a8c565b6001600160a01b031614158015610de357506005546001600160801b03808216600160801b9092041614155b15610ded575f6005555b6040518181527f712ae1383f79ac853f8d882153778e0260ef8f03b504e2866e0593e04d2b291f906020015b60405180910390a195945050505050565b5f90815260046020526040902054600160a01b900465ffffffffffff1690565b5f610a9f60085465ffffffffffff1690565b5f610b0a826117ce565b5f5f610e748686868661130e565b905033610e818282611907565b610eb557604051638fe5d8a960e01b8152600481018390526001600160a01b03821660248201526044015b60405180910390fd5b610ec18787878761194c565b979650505050505050565b60607f00000000000000000000000000000000000000000000000000000000000000006001600160a01b0316634bf5d7e96040518163ffffffff1660e01b81526004015f60405180830381865afa925050508015610f4b57506040513d5f823e601f3d908101601f19168201604052610f489190810190613ff7565b60015b610f87575060408051808201909152601d81527f6d6f64653d626c6f636b6e756d6265722666726f6d3d64656661756c74000000602082015290565b919050565b5f818152600960205260409020805460018201546002909201549091905b9193909250565b5f80339050610fd084828560405180602001604052805f815250611959565b949350505050565b5f61101e88888888888080601f0160208091040260200160405190810160405280939291908181526020018383808284375f920191909152508a925089915061197a9050565b611046576040516394ab6c0760e01b81526001600160a01b0387166004820152602401610eac565b61108988878988888080601f0160208091040260200160405190810160405280939291908181526020018383808284375f920191909152508a9250611a47915050565b98975050505050505050565b5f80339050610ec187828888888080601f0160208091040260200160405190810160405280939291908181526020018383808284375f920191909152508a9250611a47915050565b5f610b0a600a83611b25565b6110f16115e5565b610b2181611b72565b5f8033905061114086828787878080601f0160208091040260200160405190810160405280939291908181526020018383808284375f9201919091525061195992505050565b9695505050505050565b5f5f61115886868686611bd8565b90505f805b86518110156111955786818151811061117857611178613fe3565b60200260200101518261118b919061407f565b915060010161115d565b505f828152600d602052604090205595945050505050565b5f6060805f5f5f60606111be611c8e565b6111c6611cba565b604080515f80825260208201909252600f60f81b9b939a50919850469750309650945092509050565b5f6111fc85858585611ce7565b611224576040516394ab6c0760e01b81526001600160a01b0384166004820152602401610eac565b61123e85848660405180602001604052805f815250611959565b95945050505050565b5f7f00000000000000000000000000000000000000000000000000000000000000006001600160a01b03166391ddadf46040518163ffffffff1660e01b8152600401602060405180830381865afa9250505080156112c2575060408051601f3d908101601f191682019092526112bf91810190614092565b60015b610f8757610a9f611d70565b5f6112da848484611d7a565b90505b9392505050565b5f6112ef600a611e0d565b6001600160d01b0316905090565b6113056115e5565b610b2181611e51565b5f61123e8585858561151e565b5f6001610b0a565b61132b6115e5565b6113378484848461194c565b5050505050565b5f610a9f60075490565b5f828152600d6020526040808220549051632394e7a360e21b81526004810184905282906001600160a01b037f00000000000000000000000000000000000000000000000000000000000000001690638e539e8c90602401602060405180830381865afa1580156113bb573d5f5f3e3d5ffd5b505050506040513d601f19601f820116820180604052508101906113df91906140ad565b9050678ac7230489e8000082106114105760646113fd8260146140c4565b61140791906140ef565b92505050610b0a565b60646113fd8260046140c4565b5f30611427610a8c565b6001600160a01b03161461144e57604051637485328f60e11b815260040160405180910390fd5b5063bc197c8160e01b95945050505050565b5f8181526004602052604081205461149490600160d01b810463ffffffff1690600160a01b900465ffffffffffff1661410e565b65ffffffffffff1692915050565b6114aa6115e5565b5f5f856001600160a01b03168585856040516114c792919061412c565b5f6040518083038185875af1925050503d805f8114611501576040519150601f19603f3d011682016040523d82523d5f602084013e611506565b606091505b50915091506115158282611eba565b50505050505050565b5f8484848460405160200161153694939291906141ce565b60408051601f19818403018152919052805160209091012095945050505050565b61155f6115e5565b610b2181611ed6565b5f6112dd838361158260408051602081019091525f815290565b611d7a565b61158f6115e5565b610b2181611f72565b5f306115a2610a8c565b6001600160a01b0316146115c957604051637485328f60e11b815260040160405180910390fd5b5063f23a6e6160e01b95945050505050565b5f610b0a82611fb3565b336115ee610a8c565b6001600160a01b031614611617576040516347096e4760e01b8152336004820152602401610eac565b30611620610a8c565b6001600160a01b03161461165c575f803660405161163f92919061412c565b604051809103902090505b806116556005612050565b0361164a57505b565b60648082111561168b5760405163243e544560e01b81526004810183905260248101829052604401610eac565b5f6116946112e4565b90506116b36116a1611247565b6116aa856120bd565b600a91906120f4565b505060408051828152602081018590527f0553476bf02ef2726e8ce5ced78d63e26e602e4a2257b1f559418e24b4633997910160405180910390a1505050565b5f81600781111561170657611706613942565b600160ff919091161b92915050565b5f5f61172084610e5c565b90505f8361172d836116f3565b16036112dd578381846040516331b75e4d60e01b8152600401610eac93929190614218565b5f611140868686868661210e565b81546001600160801b03600160801b82048116918116600183019091160361178c5761178c604161229f565b6001600160801b038082165f90815260018086016020526040909120939093558354919092018216600160801b029116179055565b61133785858585856122b0565b5f5f6117d983612340565b905060058160078111156117ef576117ef613942565b146117fa5792915050565b5f838152600c60205260409081902054600b549151632c258a9f60e11b81526004810182905290916001600160a01b03169063584b153e90602401602060405180830381865afa158015611850573d5f5f3e3d5ffd5b505050506040513d601f19601f82011682018060405250810190611874919061423a565b15611883575060059392505050565b600b54604051632ab0f52960e01b8152600481018390526001600160a01b0390911690632ab0f52990602401602060405180830381865afa1580156118ca573d5f5f3e3d5ffd5b505050506040513d601f19601f820116820180604052508101906118ee919061423a565b156118fd575060079392505050565b5060029392505050565b5f8061191284610e5c565b600781111561192357611923613942565b1480156112dd5750505f91825260046020526040909120546001600160a01b0391821691161490565b5f61123e85858585612471565b5f61123e8585858561197560408051602081019091525f815290565b611a47565b5f610ec185611a417f3e83946653575f9a39005e1545185629e92736b7528ab20ca3816f315424a8118a8a8a6119cc8c6001600160a01b03165f90815260026020526040902080546001810190915590565b8b516020808e01919091208c518d830120604051611a2698979695949301968752602087019590955260ff9390931660408601526001600160a01b03919091166060850152608084015260a083015260c082015260e00190565b60405160208183030381529060405280519060200120612508565b84612534565b5f611a5686610c1460016116f3565b505f611a6b86611a6589610e2a565b85611d7a565b90505f611a7b88888885886125a4565b905083515f03611ad157866001600160a01b03167fb8e138887d0aa13bab447e82de9d5c1777041ecd21ca36ba824ff1e6c07ddda489888489604051611ac49493929190614259565b60405180910390a2610ec1565b866001600160a01b03167fe2babfbac5889a709b63bb7f598b324e08bc5a4fb9ec647fb3cbc9ec07eb87128988848989604051611b12959493929190614280565b60405180910390a2979650505050505050565b5f5f5f611b31856126a0565b9250925050838265ffffffffffff161115611b5e57611b59611b52856126f8565b869061272a565b611b60565b805b6001600160d01b031695945050505050565b6008546040805165ffffffffffff928316815291831660208301527fc565b045403dc03c2eea82b81a0465edad9e2e7fc4d97e11421c209da93d7a93910160405180910390a16008805465ffffffffffff191665ffffffffffff92909216919091179055565b5f33611be481846127cc565b611c0c5760405163d9b3955760e01b81526001600160a01b0382166004820152602401610eac565b5f611c1561133e565b90508015611c81575f611c43836001611c2c611247565b611c3691906142b9565b65ffffffffffff16611568565b905081811015611c7f57604051636121770b60e11b81526001600160a01b03841660048201526024810182905260448101839052606401610eac565b505b610ec18787878786612851565b6060610a9f7f00000000000000000000000000000000000000000000000000000000000000005f612a6b565b6060610a9f7f00000000000000000000000000000000000000000000000000000000000000006001612a6b565b5f61123e83611a417ff2aad550cf55f045cb27e9c559f9889fdfb6e6cdaa032301d6ea397784ae51d7888888611d398a6001600160a01b03165f90815260026020526040902080546001810190915590565b60408051602081019690965285019390935260ff90911660608401526001600160a01b0316608083015260a082015260c001611a26565b5f610a9f436126f8565b5f7f0000000000000000000000000000000000000000000000000000000000000000604051630748d63560e31b81526001600160a01b038681166004830152602482018690529190911690633a46b1a890604401602060405180830381865afa158015611de9573d5f5f3e3d5ffd5b505050506040513d601f19601f820116820180604052508101906112da91906140ad565b80545f908015611e4957611e3383611e266001846142d7565b5f91825260209091200190565b54600160301b90046001600160d01b03166112dd565b5f9392505050565b600b54604080516001600160a01b03928316815291831660208301527f08f74ea46ef7894f65eabfb5e6e695de773a000b47c529ab559178069b226401910160405180910390a1600b80546001600160a01b0319166001600160a01b0392909216919091179055565b606082611ecf57611eca82612b14565b610b0a565b5080610b0a565b8063ffffffff165f03611efe5760405163f1cfbf0560e01b81525f6004820152602401610eac565b6008546040805163ffffffff600160301b9093048316815291831660208301527f7e3f7f0708a84de9203036abaa450dccc85ad5ff52f78c170f3edb55cf5e8828910160405180910390a16008805463ffffffff909216600160301b0269ffffffff00000000000019909216919091179055565b60075460408051918252602082018390527fccb45da8d5717e6c4544694297c4ba5cf151d455c9bb0ed4fc7a38411bc05461910160405180910390a1600755565b604051632394e7a360e21b8152600481018290525f90610b0a906001600160a01b037f00000000000000000000000000000000000000000000000000000000000000001690638e539e8c90602401602060405180830381865afa15801561201c573d5f5f3e3d5ffd5b505050506040513d601f19601f8201168201806040525081019061204091906140ad565b612049846110dd565b6064612b3c565b80545f906001600160801b0380821691600160801b900416810361207857612078603161229f565b6001600160801b038181165f908152600185810160205260408220805492905585546fffffffffffffffffffffffffffffffff19169301909116919091179092555090565b5f6001600160d01b038211156120f0576040516306dfcc6560e41b815260d0600482015260248101839052604401610eac565b5090565b5f80612101858585612bec565b915091505b935093915050565b5f5f600b5f9054906101000a90046001600160a01b03166001600160a01b031663f27a0c926040518163ffffffff1660e01b8152600401602060405180830381865afa158015612160573d5f5f3e3d5ffd5b505050506040513d601f19601f8201168201806040525081019061218491906140ad565b90505f3060601b6bffffffffffffffffffffffff19168418600b5460405163b1c5f42760e01b81529192506001600160a01b03169063b1c5f427906121d5908a908a908a905f9088906004016142ea565b602060405180830381865afa1580156121f0573d5f5f3e3d5ffd5b505050506040513d601f19601f8201168201806040525081019061221491906140ad565b5f898152600c602052604080822092909255600b5491516308f2a0bb60e41b81526001600160a01b0390921691638f2a0bb09161225e918b918b918b919088908a90600401614337565b5f604051808303815f87803b158015612275575f5ffd5b505af1158015612287573d5f5f3e3d5ffd5b50505050611089824261229a919061407f565b6126f8565b634e487b715f52806020526024601cfd5b600b546001600160a01b031663e38335e5348686865f3060601b6bffffffffffffffffffffffff191688186040518763ffffffff1660e01b81526004016122fb9594939291906142ea565b5f604051808303818588803b158015612312575f5ffd5b505af1158015612324573d5f5f3e3d5ffd5b5050505f9687525050600c602052505060408320929092555050565b5f818152600460205260408120805460ff600160f01b8204811691600160f81b900416811561237457506007949350505050565b801561238557506002949350505050565b5f61238f86610e2a565b9050805f036123b457604051636ad0607560e01b815260048101879052602401610eac565b5f6123bd611247565b65ffffffffffff1690508082106123da57505f9695505050505050565b5f6123e488611460565b90508181106123fb57506001979650505050505050565b61240488612d3c565b158061242357505f888152600960205260409020805460019091015411155b1561243657506003979650505050505050565b5f8881526004602052604090206001015465ffffffffffff165f0361246357506004979650505050505050565b506005979650505050505050565b5f5f61247f86868686612d72565b5f818152600c60205260409020549091508015610cb857600b5460405163c4d252f560e01b8152600481018390526001600160a01b039091169063c4d252f5906024015f604051808303815f87803b1580156124d9575f5ffd5b505af11580156124eb573d5f5f3e3d5ffd5b5050505f838152600c602052604081205550509050949350505050565b5f610b0a612514612e21565b8360405161190160f01b8152600281019290925260228201526042902090565b5f836001600160a01b03163b5f03612592575f5f6125528585612f4a565b5090925090505f81600381111561256b5761256b613942565b1480156125895750856001600160a01b0316826001600160a01b0316145b925050506112dd565b61259d848484612f93565b90506112dd565b5f8581526009602090815260408083206001600160a01b03881684526003810190925282205460ff16156125f6576040516371c6af4960e01b81526001600160a01b0387166004820152602401610eac565b6001600160a01b0386165f9081526003820160205260409020805460ff1916600117905560ff851661263f5783815f015f828254612634919061407f565b909155506126959050565b5f1960ff86160161265d5783816001015f828254612634919061407f565b60011960ff86160161267c5783816002015f828254612634919061407f565b6040516303599be160e11b815260040160405180910390fd5b509195945050505050565b80545f90819081908082036126be575f5f5f93509350935050610faa565b5f6126ce86611e266001856142d7565b546001955065ffffffffffff81169450600160301b90046001600160d01b03169250610faa915050565b5f65ffffffffffff8211156120f0576040516306dfcc6560e41b81526030600482015260248101839052604401610eac565b81545f9081816005811115612786575f61274384613069565b61274d90856142d7565b5f8881526020902090915081015465ffffffffffff908116908716101561277657809150612784565b61278181600161407f565b92505b505b5f612793878785856131c1565b905080156127c0576127aa87611e266001846142d7565b54600160301b90046001600160d01b0316610ec1565b5f979650505050505050565b80515f9060348110156127e3576001915050610b0a565b60131981840101516001600160b01b03198116692370726f706f7365723d60b01b1461281457600192505050610b0a565b5f5f61282486602a860386613220565b91509150811580610ec15750866001600160a01b0316816001600160a01b03161494505050505092915050565b5f612865868686868051906020012061130e565b90508451865114158061287a57508351865114155b8061288457508551155b156128b957855184518651604051630447b05d60e41b8152600481019390935260248301919091526044820152606401610eac565b5f81815260046020526040902054600160a01b900465ffffffffffff161561290257806128e582610e5c565b6040516331b75e4d60e01b8152610eac9291905f90600401614218565b5f61290b610e4a565b612913611247565b65ffffffffffff16612925919061407f565b90505f61293f60085463ffffffff600160301b9091041690565b5f84815260046020526040902080546001600160a01b0319166001600160a01b038716178155909150612971836126f8565b815465ffffffffffff91909116600160a01b0265ffffffffffff60a01b1990911617815561299e826132c9565b815463ffffffff91909116600160d01b0263ffffffff60d01b1990911617815588517f7d84a6263ae0d98d3329bd7b46bb4e8d6f98cd35a7adb45c274c8b7fd5ebd5e090859087908c908c906001600160401b03811115612a0157612a01613626565b604051908082528060200260200182016040528015612a3457816020015b6060815260200190600190039081612a1f5790505b508c89612a418a8261407f565b8e604051612a579998979695949392919061438e565b60405180910390a150505095945050505050565b606060ff8314612a8557612a7e836132f9565b9050610b0a565b818054612a9190613fab565b80601f0160208091040260200160405190810160405280929190818152602001828054612abd90613fab565b8015612b085780601f10612adf57610100808354040283529160200191612b08565b820191905f5260205f20905b815481529060010190602001808311612aeb57829003601f168201915b50505050509050610b0a565b805115612b2357805160208201fd5b60405163d6bda27560e01b815260040160405180910390fd5b5f5f5f612b498686613336565b91509150815f03612b6d57838181612b6357612b636140db565b04925050506112dd565b818411612b8457612b84600385150260111861229f565b5f848688095f868103871696879004966002600389028118808a02820302808a02820302808a02820302808a02820302808a02820302808a02909103029181900381900460010185841190960395909502919093039390930492909217029150509392505050565b82545f9081908015612ce2575f612c0887611e266001856142d7565b805490915065ffffffffffff80821691600160301b90046001600160d01b0316908816821115612c4b57604051632520601d60e01b815260040160405180910390fd5b8765ffffffffffff168265ffffffffffff1603612c8457825465ffffffffffff16600160301b6001600160d01b03891602178355612cd4565b6040805180820190915265ffffffffffff808a1682526001600160d01b03808a1660208085019182528d54600181018f555f8f81529190912094519151909216600160301b029216919091179101555b945085935061210692505050565b50506040805180820190915265ffffffffffff80851682526001600160d01b0380851660208085019182528854600181018a555f8a815291822095519251909316600160301b029190931617920191909155905081612106565b5f81815260096020526040812060028101546001820154612d5d919061407f565b612d69610a5585610e2a565b11159392505050565b5f5f612d808686868661130e565b9050612dce81612d9060076116f3565b612d9a60066116f3565b612da460026116f3565b6001612db1600782614469565b612dbc90600261455d565b612dc691906142d7565b181818611715565b505f818152600460205260409081902080546001600160f81b0316600160f81b179055517f789cf55be980739dad1d0699b93b58e806b51c9d96619bfa8fe0a28abaa7b30c90610e199083815260200190565b5f306001600160a01b037f000000000000000000000000000000000000000000000000000000000000000016148015612e7957507f000000000000000000000000000000000000000000000000000000000000000046145b15612ea357507f000000000000000000000000000000000000000000000000000000000000000090565b610a9f604080517f8b73c3c69bb8fe3d512ecc4cf759cc79239f7b179b0ffacaa9a75d522b39400f60208201527f0000000000000000000000000000000000000000000000000000000000000000918101919091527f000000000000000000000000000000000000000000000000000000000000000060608201524660808201523060a08201525f9060c00160405160208183030381529060405280519060200120905090565b5f5f5f8351604103612f81576020840151604085015160608601515f1a612f7388828585613352565b955095509550505050612f8c565b505081515f91506002905b9250925092565b5f5f5f856001600160a01b03168585604051602401612fb392919061456b565b60408051601f198184030181529181526020820180516001600160e01b0316630b135d3f60e11b17905251612fe89190614583565b5f60405180830381855afa9150503d805f8114613020576040519150601f19603f3d011682016040523d82523d5f602084013e613025565b606091505b509150915081801561303957506020815110155b801561114057508051630b135d3f60e11b9061305e90830160209081019084016140ad565b149695505050505050565b5f60018211613076575090565b816001600160801b821061308f5760809190911c9060401b5b6801000000000000000082106130aa5760409190911c9060201b5b64010000000082106130c15760209190911c9060101b5b6201000082106130d65760109190911c9060081b5b61010082106130ea5760089190911c9060041b5b601082106130fd5760049190911c9060021b5b600482106131095760011b5b600302600190811c90818581613121576131216140db565b048201901c90506001818581613139576131396140db565b048201901c90506001818581613151576131516140db565b048201901c90506001818581613169576131696140db565b048201901c90506001818581613181576131816140db565b048201901c90506001818581613199576131996140db565b048201901c90506131b88185816131b2576131b26140db565b04821190565b90039392505050565b5f5b81831015613218575f6131d6848461341a565b5f8781526020902090915065ffffffffffff86169082015465ffffffffffff16111561320457809250613212565b61320f81600161407f565b93505b506131c3565b509392505050565b5f5f845183118061323057508284115b1561323f57505f905080612106565b5f61324b85600161407f565b84118015613273575061060f60f31b6132678787016020015190565b6001600160f01b031916145b90505f61328382151560026140c4565b61328e90602861407f565b90508061329b87876142d7565b036132bc575f5f6132ad898989613434565b90965094506121069350505050565b5f5f935093505050612106565b5f63ffffffff8211156120f0576040516306dfcc6560e41b81526020600482015260248101839052604401610eac565b60605f613305836134f5565b6040805160208082528183019092529192505f91906020820181803683375050509182525060208101929092525090565b5f805f1983850993909202808410938190039390930393915050565b5f80807f7fffffffffffffffffffffffffffffff5d576e7357a4501ddfe92f46681b20a084111561338b57505f91506003905082613410565b604080515f808252602082018084528a905260ff891692820192909252606081018790526080810186905260019060a0016020604051602081039080840390855afa1580156133dc573d5f5f3e3d5ffd5b5050604051601f1901519150506001600160a01b03811661340757505f925060019150829050613410565b92505f91508190505b9450945094915050565b5f61342860028484186140ef565b6112dd9084841661407f565b5f80848161344386600161407f565b8511801561346b575061060f60f31b61345f8388016020015190565b6001600160f01b031916145b90505f61347b82151560026140c4565b90505f80613489838a61407f565b90505b878110156134e4575f6134aa6134a58784016020015190565b61351c565b9050600f8160ff1611156134c9575f5f97509750505050505050612106565b6134d46010846140c4565b60ff90911601915060010161348c565b506001999098509650505050505050565b5f60ff8216601f811115610b0a57604051632cd44ac360e21b815260040160405180910390fd5b5f60f882901c602f811180156135355750603a8160ff16105b1561354357602f1901610b0a565b60608160ff16118015613559575060678160ff16105b156135675760561901610b0a565b60408160ff1611801561357d575060478160ff16105b1561358b5760361901610b0a565b5060ff92915050565b5f602082840312156135a4575f5ffd5b81356001600160e01b0319811681146112dd575f5ffd5b5f602082840312156135cb575f5ffd5b5035919050565b5f81518084528060208401602086015e5f602082860101526020601f19601f83011685010191505092915050565b602081525f6112dd60208301846135d2565b6001600160a01b0381168114610b21575f5ffd5b634e487b7160e01b5f52604160045260245ffd5b604051601f8201601f191681016001600160401b038111828210171561366257613662613626565b604052919050565b5f6001600160401b0382111561368257613682613626565b50601f01601f191660200190565b5f6136a261369d8461366a565b61363a565b90508281528383830111156136b5575f5ffd5b828260208301375f602084830101529392505050565b5f82601f8301126136da575f5ffd5b6112dd83833560208501613690565b5f5f5f5f608085870312156136fc575f5ffd5b843561370781613612565b9350602085013561371781613612565b92506040850135915060608501356001600160401b03811115613738575f5ffd5b613744878288016136cb565b91505092959194509250565b5f6001600160401b0382111561376857613768613626565b5060051b60200190565b5f82601f830112613781575f5ffd5b813561378f61369d82613750565b8082825260208201915060208360051b8601019250858311156137b0575f5ffd5b602085015b83811015610cb85780356137c881613612565b8352602092830192016137b5565b5f82601f8301126137e5575f5ffd5b81356137f361369d82613750565b8082825260208201915060208360051b860101925085831115613814575f5ffd5b602085015b83811015610cb8578035835260209283019201613819565b5f82601f830112613840575f5ffd5b813561384e61369d82613750565b8082825260208201915060208360051b86010192508583111561386f575f5ffd5b602085015b83811015610cb85780356001600160401b03811115613891575f5ffd5b6138a0886020838a01016136cb565b84525060209283019201613874565b5f5f5f5f608085870312156138c2575f5ffd5b84356001600160401b038111156138d7575f5ffd5b6138e387828801613772565b94505060208501356001600160401b038111156138fe575f5ffd5b61390a878288016137d6565b93505060408501356001600160401b03811115613925575f5ffd5b61393187828801613831565b949793965093946060013593505050565b634e487b7160e01b5f52602160045260245ffd5b6008811061397257634e487b7160e01b5f52602160045260245ffd5b9052565b60208101610b0a8284613956565b5f5f60408385031215613995575f5ffd5b8235915060208301356139a781613612565b809150509250929050565b803560ff81168114610f87575f5ffd5b5f5f604083850312156139d3575f5ffd5b823591506139e3602084016139b2565b90509250929050565b5f5f83601f8401126139fc575f5ffd5b5081356001600160401b03811115613a12575f5ffd5b602083019150836020828501011115613a29575f5ffd5b9250929050565b5f5f5f5f5f5f5f60c0888a031215613a46575f5ffd5b87359650613a56602089016139b2565b95506040880135613a6681613612565b945060608801356001600160401b03811115613a80575f5ffd5b613a8c8a828b016139ec565b90955093505060808801356001600160401b03811115613aaa575f5ffd5b613ab68a828b016136cb565b92505060a08801356001600160401b03811115613ad1575f5ffd5b613add8a828b016136cb565b91505092959891949750929550565b5f5f5f5f5f60808688031215613b00575f5ffd5b85359450613b10602087016139b2565b935060408601356001600160401b03811115613b2a575f5ffd5b613b36888289016139ec565b90945092505060608601356001600160401b03811115613b54575f5ffd5b613b60888289016136cb565b9150509295509295909350565b65ffffffffffff81168114610b21575f5ffd5b5f60208284031215613b90575f5ffd5b81356112dd81613b6d565b5f5f5f5f60608587031215613bae575f5ffd5b84359350613bbe602086016139b2565b925060408501356001600160401b03811115613bd8575f5ffd5b613be4878288016139ec565b95989497509550505050565b5f5f5f5f60808587031215613c03575f5ffd5b84356001600160401b03811115613c18575f5ffd5b613c2487828801613772565b94505060208501356001600160401b03811115613c3f575f5ffd5b613c4b878288016137d6565b93505060408501356001600160401b03811115613c66575f5ffd5b613c7287828801613831565b92505060608501356001600160401b03811115613c8d575f5ffd5b8501601f81018713613c9d575f5ffd5b61374487823560208401613690565b5f60208284031215613cbc575f5ffd5b81356112dd81613612565b5f8151808452602084019350602083015f5b82811015613cf7578151865260209586019590910190600101613cd9565b5093949350505050565b60ff60f81b8816815260e060208201525f613d1f60e08301896135d2565b8281036040840152613d3181896135d2565b606084018890526001600160a01b038716608085015260a0840186905283810360c08501529050613d628185613cc7565b9a9950505050505050505050565b5f5f5f5f60808587031215613d83575f5ffd5b84359350613d93602086016139b2565b92506040850135613da381613612565b915060608501356001600160401b03811115613738575f5ffd5b5f5f5f60608486031215613dcf575f5ffd5b8335613dda81613612565b92506020840135915060408401356001600160401b03811115613dfb575f5ffd5b613e07868287016136cb565b9150509250925092565b5f5f60408385031215613e22575f5ffd5b50508035926020909101359150565b5f5f5f5f5f60a08688031215613e45575f5ffd5b8535613e5081613612565b94506020860135613e6081613612565b935060408601356001600160401b03811115613e7a575f5ffd5b613e86888289016137d6565b93505060608601356001600160401b03811115613ea1575f5ffd5b613ead888289016137d6565b92505060808601356001600160401b03811115613b54575f5ffd5b5f5f5f5f60608587031215613edb575f5ffd5b8435613ee681613612565b93506020850135925060408501356001600160401b03811115613bd8575f5ffd5b5f60208284031215613f17575f5ffd5b813563ffffffff811681146112dd575f5ffd5b5f5f60408385031215613f3b575f5ffd5b8235613f4681613612565b946020939093013593505050565b5f5f5f5f5f60a08688031215613f68575f5ffd5b8535613f7381613612565b94506020860135613f8381613612565b9350604086013592506060860135915060808601356001600160401b03811115613b54575f5ffd5b600181811c90821680613fbf57607f821691505b602082108103613fdd57634e487b7160e01b5f52602260045260245ffd5b50919050565b634e487b7160e01b5f52603260045260245ffd5b5f60208284031215614007575f5ffd5b81516001600160401b0381111561401c575f5ffd5b8201601f8101841361402c575f5ffd5b805161403a61369d8261366a565b81815285602083850101111561404e575f5ffd5b8160208401602083015e5f91810160200191909152949350505050565b634e487b7160e01b5f52601160045260245ffd5b80820180821115610b0a57610b0a61406b565b5f602082840312156140a2575f5ffd5b81516112dd81613b6d565b5f602082840312156140bd575f5ffd5b5051919050565b8082028115828204841417610b0a57610b0a61406b565b634e487b7160e01b5f52601260045260245ffd5b5f8261410957634e487b7160e01b5f52601260045260245ffd5b500490565b65ffffffffffff8181168382160190811115610b0a57610b0a61406b565b818382375f9101908152919050565b5f8151808452602084019350602083015f5b82811015613cf75781516001600160a01b031686526020958601959091019060010161414d565b5f82825180855260208501945060208160051b830101602085015f5b838110156141c257601f198584030188526141ac8383516135d2565b6020988901989093509190910190600101614190565b50909695505050505050565b608081525f6141e0608083018761413b565b82810360208401526141f28187613cc7565b905082810360408401526142068186614174565b91505082606083015295945050505050565b8381526060810161422c6020830185613956565b826040830152949350505050565b5f6020828403121561424a575f5ffd5b815180151581146112dd575f5ffd5b84815260ff84166020820152826040820152608060608201525f61114060808301846135d2565b85815260ff8516602082015283604082015260a060608201525f6142a760a08301856135d2565b828103608084015261108981856135d2565b65ffffffffffff8281168282160390811115610b0a57610b0a61406b565b81810381811115610b0a57610b0a61406b565b60a081525f6142fc60a083018861413b565b828103602084015261430e8188613cc7565b905082810360408401526143228187614174565b60608401959095525050608001529392505050565b60c081525f61434960c083018961413b565b828103602084015261435b8189613cc7565b9050828103604084015261436f8188614174565b60608401969096525050608081019290925260a0909101529392505050565b8981526001600160a01b0389166020820152610120604082018190525f906143b89083018a61413b565b82810360608401526143ca818a613cc7565b9050828103608084015280885180835260208301915060208160051b84010160208b015f5b8381101561442157601f1986840301855261440b8383516135d2565b60209586019590935091909101906001016143ef565b505085810360a0870152614435818b614174565b93505050508560c08401528460e084015282810361010084015261445981856135d2565b9c9b505050505050505050505050565b60ff8181168382160190811115610b0a57610b0a61406b565b6001815b6001841115612106578085048111156144a1576144a161406b565b60018416156144af57908102905b60019390931c928002614486565b5f826144cb57506001610b0a565b816144d757505f610b0a565b81600181146144ed57600281146144f757614513565b6001915050610b0a565b60ff8411156145085761450861406b565b50506001821b610b0a565b5060208310610133831016604e8410600b8410161715614536575081810a610b0a565b6145425f198484614482565b805f19048211156145555761455561406b565b029392505050565b5f6112dd60ff8416836144bd565b828152604060208201525f6112da60408301846135d2565b5f82518060208501845e5f92019182525091905056fea26469706673582212205322e8562b5fe78ae1db1b163a3eba50b7f266f6ba567db50388c043efba71ec64736f6c634300081c0033",
  "linkReferences": {},
  "deployedLinkReferences": {},
  "immutableReferences": {
    "4502": [
      {
        "length": 32,
        "start": 2664
      },
      {
        "length": 32,
        "start": 3792
      },
      {
        "length": 32,
        "start": 4682
      },
      {
        "length": 32,
        "start": 4982
      },
      {
        "length": 32,
        "start": 7549
      },
      {
        "length": 32,
        "start": 8151
      }
    ],
    "7903": [
      {
        "length": 32,
        "start": 11905
      }
    ],
    "7905": [
      {
        "length": 32,
        "start": 11863
      }
    ],
    "7907": [
      {
        "length": 32,
        "start": 11821
      }
    ],
    "7909": [
      {
        "length": 32,
        "start": 11986
      }
    ],
    "7911": [
      {
        "length": 32,
        "start": 12026
      }
    ],
    "7914": [
      {
        "length": 32,
        "start": 7317
      }
    ],
    "7917": [
      {
        "length": 32,
        "start": 7361
      }
    ]
  },
  "inputSourceName": "project/contracts/DAOManager.sol",
  "buildInfoId": "solc-0_8_28-ddb3aba431631e380d9572ed05a4690da7e0ad87"
}